{
  "transactions": [
    {
      "hash": "0xda65e3a8f2d931526302a92f79baacd1f17f5ba9ccdac7b3b80b513308af4743",
      "transactionType": "CALL",
      "contractName": null,
      "contractAddress": "0x0e26ade1f5a99bd6b5d40f870a87bfe143db68b6",
      "function": "UpdateXYZ(address,bool,uint256,uint256)",
      "arguments": [
        "0x25D45a942405834B963c84b66418514c81b2f8c7",
        "false",
        "115792089237316195423570985008687907853269984665640564039457584007913129639935",
        "1000"
      ],
      "transaction": {
        "from": "0xc1612c97537c2cc62a11fc4516367ab6f62d4b23",
        "to": "0x0e26ade1f5a99bd6b5d40f870a87bfe143db68b6",
        "gas": "0x1b2f1",
        "value": "0x0",
        "input": "0xe9aea39600000000000000000000000025d45a942405834b963c84b66418514c81b2f8c70000000000000000000000000000000000000000000000000000000000000000ffffffffffffffffffffffffffffffffffffffffffffffffffffffffffffffff00000000000000000000000000000000000000000000000000000000000003e8",
        "nonce": "0xc7",
        "chainId": "0x7e1"
      },
      "additionalContracts": [],
      "isFixedGasLimit": false
    },
    {
      "hash": "0x22d4229f8e2b7c21e97e3ca849fb46125e33c11220746fe0cf4c3de39c84e7d2",
      "transactionType": "CALL",
      "contractName": null,
      "contractAddress": "0x0e26ade1f5a99bd6b5d40f870a87bfe143db68b6",
      "function": "UpdateXYZ(address,bool,uint256,uint256)",
      "arguments": [
        "0x5fe291dD7b6A35502a51814df5E51A461B9c085f",
        "false",
        "115792089237316195423570985008687907853269984665640564039457584007913129639935",
        "1000"
      ],
      "transaction": {
        "from": "0xc1612c97537c2cc62a11fc4516367ab6f62d4b23",
        "to": "0x0e26ade1f5a99bd6b5d40f870a87bfe143db68b6",
        "gas": "0x1a660",
        "value": "0x0",
        "input": "0xe9aea3960000000000000000000000005fe291dd7b6a35502a51814df5e51a461b9c085f0000000000000000000000000000000000000000000000000000000000000000ffffffffffffffffffffffffffffffffffffffffffffffffffffffffffffffff00000000000000000000000000000000000000000000000000000000000003e8",
        "nonce": "0xc8",
        "chainId": "0x7e1"
      },
      "additionalContracts": [],
      "isFixedGasLimit": false
    },
    {
      "hash": "0x4598a7d3a2f73bfe55825e42ecd676839b32b680d7e50fe65712fa776ae25588",
      "transactionType": "CALL",
      "contractName": null,
      "contractAddress": "0x0e26ade1f5a99bd6b5d40f870a87bfe143db68b6",
      "function": "UpdateXYZ(address,bool,uint256,uint256)",
      "arguments": [
        "0x3A60aCD97fEA737ddD3e8FB2070601c19Ac22699",
        "false",
        "115792089237316195423570985008687907853269984665640564039457584007913129639935",
        "1000"
      ],
      "transaction": {
        "from": "0xc1612c97537c2cc62a11fc4516367ab6f62d4b23",
        "to": "0x0e26ade1f5a99bd6b5d40f870a87bfe143db68b6",
        "gas": "0x1b1eb",
        "value": "0x0",
        "input": "0xe9aea3960000000000000000000000003a60acd97fea737ddd3e8fb2070601c19ac226990000000000000000000000000000000000000000000000000000000000000000ffffffffffffffffffffffffffffffffffffffffffffffffffffffffffffffff00000000000000000000000000000000000000000000000000000000000003e8",
        "nonce": "0xc9",
        "chainId": "0x7e1"
      },
      "additionalContracts": [],
      "isFixedGasLimit": false
    },
    {
      "hash": "0xfb78abd25bfb4a2d511f6527bfc13b7c5ec3b50cc0ef89e5bf04d7ac2bba9cf1",
      "transactionType": "CALL",
      "contractName": null,
      "contractAddress": "0x0e26ade1f5a99bd6b5d40f870a87bfe143db68b6",
      "function": "UpdateXYZ(address,bool,uint256,uint256)",
      "arguments": [
        "0x7c76C4F1F0ae16Fb6648C8a0aBF9F19ad6c059d9",
        "false",
        "115792089237316195423570985008687907853269984665640564039457584007913129639935",
        "1000"
      ],
      "transaction": {
        "from": "0xc1612c97537c2cc62a11fc4516367ab6f62d4b23",
        "to": "0x0e26ade1f5a99bd6b5d40f870a87bfe143db68b6",
        "gas": "0x1a49f",
        "value": "0x0",
        "input": "0xe9aea3960000000000000000000000007c76c4f1f0ae16fb6648c8a0abf9f19ad6c059d90000000000000000000000000000000000000000000000000000000000000000ffffffffffffffffffffffffffffffffffffffffffffffffffffffffffffffff00000000000000000000000000000000000000000000000000000000000003e8",
        "nonce": "0xca",
        "chainId": "0x7e1"
      },
      "additionalContracts": [],
      "isFixedGasLimit": false
    },
    {
      "hash": "0x86d3604296512cf34894ca449f46f916273c13a0cb3573a0f43e4468e2c4eb08",
      "transactionType": "CALL",
      "contractName": null,
      "contractAddress": "0x0e26ade1f5a99bd6b5d40f870a87bfe143db68b6",
      "function": "UpdateXYZ(address,bool,uint256,uint256)",
      "arguments": [
        "0xF84548d35A90d8B107019478188a3791f3b8f6C1",
        "false",
        "115792089237316195423570985008687907853269984665640564039457584007913129639935",
        "1000"
      ],
      "transaction": {
        "from": "0xc1612c97537c2cc62a11fc4516367ab6f62d4b23",
        "to": "0x0e26ade1f5a99bd6b5d40f870a87bfe143db68b6",
        "gas": "0x19752",
        "value": "0x0",
        "input": "0xe9aea396000000000000000000000000f84548d35a90d8b107019478188a3791f3b8f6c10000000000000000000000000000000000000000000000000000000000000000ffffffffffffffffffffffffffffffffffffffffffffffffffffffffffffffff00000000000000000000000000000000000000000000000000000000000003e8",
        "nonce": "0xcb",
        "chainId": "0x7e1"
      },
      "additionalContracts": [],
      "isFixedGasLimit": false
    },
    {
      "hash": "0x61fa977ff3b5d15d8f97f91e63556bbfbec551d2c08bfd7cd3e0550574628abb",
      "transactionType": "CALL",
      "contractName": null,
      "contractAddress": "0x0e26ade1f5a99bd6b5d40f870a87bfe143db68b6",
      "function": "UpdateXYZ(address,bool,uint256,uint256)",
      "arguments": [
        "0x5Cc307482EabA4C03526C00B6D6f5e05949550d9",
        "false",
        "115792089237316195423570985008687907853269984665640564039457584007913129639935",
        "1000"
      ],
      "transaction": {
        "from": "0xc1612c97537c2cc62a11fc4516367ab6f62d4b23",
        "to": "0x0e26ade1f5a99bd6b5d40f870a87bfe143db68b6",
        "gas": "0x18a05",
        "value": "0x0",
        "input": "0xe9aea3960000000000000000000000005cc307482eaba4c03526c00b6d6f5e05949550d90000000000000000000000000000000000000000000000000000000000000000ffffffffffffffffffffffffffffffffffffffffffffffffffffffffffffffff00000000000000000000000000000000000000000000000000000000000003e8",
        "nonce": "0xcc",
        "chainId": "0x7e1"
      },
      "additionalContracts": [],
      "isFixedGasLimit": false
    },
    {
      "hash": "0xa2b5b55f7fe9dde74549b8b18e29ad6b8868f1857549f6b57fa3c7ac7a0df7b3",
      "transactionType": "CALL",
      "contractName": null,
      "contractAddress": "0x0e26ade1f5a99bd6b5d40f870a87bfe143db68b6",
      "function": "UpdateXYZ(address,bool,uint256,uint256)",
      "arguments": [
        "0x989251Ff79b744736a91c617DDE3D3b5Da2C09Ef",
        "false",
        "115792089237316195423570985008687907853269984665640564039457584007913129639935",
        "1000"
      ],
      "transaction": {
        "from": "0xc1612c97537c2cc62a11fc4516367ab6f62d4b23",
        "to": "0x0e26ade1f5a99bd6b5d40f870a87bfe143db68b6",
        "gas": "0x17cb8",
        "value": "0x0",
        "input": "0xe9aea396000000000000000000000000989251ff79b744736a91c617dde3d3b5da2c09ef0000000000000000000000000000000000000000000000000000000000000000ffffffffffffffffffffffffffffffffffffffffffffffffffffffffffffffff00000000000000000000000000000000000000000000000000000000000003e8",
        "nonce": "0xcd",
        "chainId": "0x7e1"
      },
      "additionalContracts": [],
      "isFixedGasLimit": false
    },
    {
      "hash": "0xbc0e0a57fe36b232130181eab93221ecfab3ce1f973e0133fb4fe9f177bcfea2",
      "transactionType": "CALL",
      "contractName": null,
      "contractAddress": "0x0e26ade1f5a99bd6b5d40f870a87bfe143db68b6",
      "function": "UpdateXYZ(address,bool,uint256,uint256)",
      "arguments": [
        "0x7e27fC84da5e35097982fdA7b2C93E8cE4FB5817",
        "false",
        "115792089237316195423570985008687907853269984665640564039457584007913129639935",
        "1000"
      ],
      "transaction": {
        "from": "0xc1612c97537c2cc62a11fc4516367ab6f62d4b23",
        "to": "0x0e26ade1f5a99bd6b5d40f870a87bfe143db68b6",
        "gas": "0x15c72",
        "value": "0x0",
        "input": "0xe9aea3960000000000000000000000007e27fc84da5e35097982fda7b2c93e8ce4fb58170000000000000000000000000000000000000000000000000000000000000000ffffffffffffffffffffffffffffffffffffffffffffffffffffffffffffffff00000000000000000000000000000000000000000000000000000000000003e8",
        "nonce": "0xce",
        "chainId": "0x7e1"
      },
      "additionalContracts": [],
      "isFixedGasLimit": false
    },
    {
      "hash": "0xecd57dcd3a6262802177cccab20e8f80ecb897f81097f169edfebba215628897",
      "transactionType": "CALL",
      "contractName": null,
      "contractAddress": "0x0e26ade1f5a99bd6b5d40f870a87bfe143db68b6",
      "function": "UpdateXYZ(address,bool,uint256,uint256)",
      "arguments": [
        "0xC8156aF812714b8cedb540AdEc69FC104d99930B",
        "false",
        "115792089237316195423570985008687907853269984665640564039457584007913129639935",
        "1000"
      ],
      "transaction": {
        "from": "0xc1612c97537c2cc62a11fc4516367ab6f62d4b23",
        "to": "0x0e26ade1f5a99bd6b5d40f870a87bfe143db68b6",
        "gas": "0x14f25",
        "value": "0x0",
        "input": "0xe9aea396000000000000000000000000c8156af812714b8cedb540adec69fc104d99930b0000000000000000000000000000000000000000000000000000000000000000ffffffffffffffffffffffffffffffffffffffffffffffffffffffffffffffff00000000000000000000000000000000000000000000000000000000000003e8",
        "nonce": "0xcf",
        "chainId": "0x7e1"
      },
      "additionalContracts": [],
      "isFixedGasLimit": false
    },
    {
      "hash": "0x50400aaedce6a46dd7e1e3dafb988011854c2190ff50084e803d60527f237b80",
      "transactionType": "CALL",
      "contractName": null,
      "contractAddress": "0x0e26ade1f5a99bd6b5d40f870a87bfe143db68b6",
      "function": "UpdateXYZ(address,bool,uint256,uint256)",
      "arguments": [
        "0x356Ccc8a7cBE1EADF0282E6C23278B0e67fB3f91",
        "false",
        "115792089237316195423570985008687907853269984665640564039457584007913129639935",
        "1000"
      ],
      "transaction": {
        "from": "0xc1612c97537c2cc62a11fc4516367ab6f62d4b23",
        "to": "0x0e26ade1f5a99bd6b5d40f870a87bfe143db68b6",
        "gas": "0x141d8",
        "value": "0x0",
        "input": "0xe9aea396000000000000000000000000356ccc8a7cbe1eadf0282e6c23278b0e67fb3f910000000000000000000000000000000000000000000000000000000000000000ffffffffffffffffffffffffffffffffffffffffffffffffffffffffffffffff00000000000000000000000000000000000000000000000000000000000003e8",
        "nonce": "0xd0",
        "chainId": "0x7e1"
      },
      "additionalContracts": [],
      "isFixedGasLimit": false
    },
    {
      "hash": "0x0c02be30b5346d4a384295d18fc6439939d148b118884c21d041abb95dadc9cc",
      "transactionType": "CALL",
      "contractName": null,
      "contractAddress": "0x0e26ade1f5a99bd6b5d40f870a87bfe143db68b6",
      "function": "UpdateXYZ(address,bool,uint256,uint256)",
      "arguments": [
        "0x5404F8B4F4625CFf045A3076Bc28c250a71E4507",
        "false",
        "115792089237316195423570985008687907853269984665640564039457584007913129639935",
        "1000"
      ],
      "transaction": {
        "from": "0xc1612c97537c2cc62a11fc4516367ab6f62d4b23",
        "to": "0x0e26ade1f5a99bd6b5d40f870a87bfe143db68b6",
        "gas": "0x1348c",
        "value": "0x0",
        "input": "0xe9aea3960000000000000000000000005404f8b4f4625cff045a3076bc28c250a71e45070000000000000000000000000000000000000000000000000000000000000000ffffffffffffffffffffffffffffffffffffffffffffffffffffffffffffffff00000000000000000000000000000000000000000000000000000000000003e8",
        "nonce": "0xd1",
        "chainId": "0x7e1"
      },
      "additionalContracts": [],
      "isFixedGasLimit": false
    },
    {
      "hash": "0x1dabb26b1f8284eaf3bb1f7d288f136c7dc24a1441d9ae2c4a3f00daeb05c771",
      "transactionType": "CALL",
      "contractName": null,
      "contractAddress": "0x0e26ade1f5a99bd6b5d40f870a87bfe143db68b6",
      "function": "UpdateXYZ(address,bool,uint256,uint256)",
      "arguments": [
        "0x838130A2020f602dd9E08e370c3494777104B2c0",
        "false",
        "115792089237316195423570985008687907853269984665640564039457584007913129639935",
        "1000"
      ],
      "transaction": {
        "from": "0xc1612c97537c2cc62a11fc4516367ab6f62d4b23",
        "to": "0x0e26ade1f5a99bd6b5d40f870a87bfe143db68b6",
        "gas": "0x1273f",
        "value": "0x0",
        "input": "0xe9aea396000000000000000000000000838130a2020f602dd9e08e370c3494777104b2c00000000000000000000000000000000000000000000000000000000000000000ffffffffffffffffffffffffffffffffffffffffffffffffffffffffffffffff00000000000000000000000000000000000000000000000000000000000003e8",
        "nonce": "0xd2",
        "chainId": "0x7e1"
      },
      "additionalContracts": [],
      "isFixedGasLimit": false
    },
    {
      "hash": "0x200f293bbff9bda3b8fbb081990fa4b393a4cd2597d72968eca838af7fe302c0",
      "transactionType": "CALL",
      "contractName": null,
      "contractAddress": "0x0e26ade1f5a99bd6b5d40f870a87bfe143db68b6",
      "function": "UpdateXYZ(address,bool,uint256,uint256)",
      "arguments": [
        "0x6D780B5e1104f3F30F5976D3D3DB16431e761148",
        "false",
        "115792089237316195423570985008687907853269984665640564039457584007913129639935",
        "1000"
      ],
      "transaction": {
        "from": "0xc1612c97537c2cc62a11fc4516367ab6f62d4b23",
        "to": "0x0e26ade1f5a99bd6b5d40f870a87bfe143db68b6",
        "gas": "0x119f2",
        "value": "0x0",
        "input": "0xe9aea3960000000000000000000000006d780b5e1104f3f30f5976d3d3db16431e7611480000000000000000000000000000000000000000000000000000000000000000ffffffffffffffffffffffffffffffffffffffffffffffffffffffffffffffff00000000000000000000000000000000000000000000000000000000000003e8",
        "nonce": "0xd3",
        "chainId": "0x7e1"
      },
      "additionalContracts": [],
      "isFixedGasLimit": false
    },
    {
      "hash": "0xad6e7567b886360705ccf44cb6ab3e19516e3529edd03d7128d69e49103427e3",
      "transactionType": "CALL",
      "contractName": null,
      "contractAddress": "0x0e26ade1f5a99bd6b5d40f870a87bfe143db68b6",
      "function": "UpdateXYZ(address,bool,uint256,uint256)",
      "arguments": [
        "0x1C74574848D67AB4fbc8C24F21a0f44a10370fDa",
        "false",
        "115792089237316195423570985008687907853269984665640564039457584007913129639935",
        "1000"
      ],
      "transaction": {
        "from": "0xc1612c97537c2cc62a11fc4516367ab6f62d4b23",
        "to": "0x0e26ade1f5a99bd6b5d40f870a87bfe143db68b6",
        "gas": "0x10ca5",
        "value": "0x0",
        "input": "0xe9aea3960000000000000000000000001c74574848d67ab4fbc8c24f21a0f44a10370fda0000000000000000000000000000000000000000000000000000000000000000ffffffffffffffffffffffffffffffffffffffffffffffffffffffffffffffff00000000000000000000000000000000000000000000000000000000000003e8",
        "nonce": "0xd4",
        "chainId": "0x7e1"
      },
      "additionalContracts": [],
      "isFixedGasLimit": false
    }
  ],
  "receipts": [
    {
      "status": "0x1",
      "cumulativeGasUsed": "0x13ae4",
      "logs": [
        {
          "address": "0x0e26ade1f5a99bd6b5d40f870a87bfe143db68b6",
          "topics": [
            "0x29ef6e5e7533f5e04f1729a119b0acf31837e10f8a66e61d22dedd180d0221e9"
          ],
          "data": "0x00000000000000000000000025d45a942405834b963c84b66418514c81b2f8c7",
          "blockHash": "0x58ec9622f1c1d67966c37c1fe1264b962c9f15fdd1b015c8e2e5a400911608d5",
          "blockNumber": "0x11b8e9",
          "blockTimestamp": "0x67afdcd4",
          "transactionHash": "0xda65e3a8f2d931526302a92f79baacd1f17f5ba9ccdac7b3b80b513308af4743",
          "transactionIndex": "0x0",
          "logIndex": "0x0",
          "removed": false
        },
        {
          "address": "0x0e26ade1f5a99bd6b5d40f870a87bfe143db68b6",
          "topics": [
            "0x84f12763861d318f97fe38a0e6f70b46f0566462d67561978f0f4dff814031df"
          ],
          "data": "0x00000000000000000000000025d45a942405834b963c84b66418514c81b2f8c70000000000000000000000000000000000000000000000000000000000000000ffffffffffffffffffffffffffffffffffffffffffffffffffffffffffffffff00000000000000000000000000000000000000000000000000000000000003e8",
          "blockHash": "0x58ec9622f1c1d67966c37c1fe1264b962c9f15fdd1b015c8e2e5a400911608d5",
          "blockNumber": "0x11b8e9",
          "blockTimestamp": "0x67afdcd4",
          "transactionHash": "0xda65e3a8f2d931526302a92f79baacd1f17f5ba9ccdac7b3b80b513308af4743",
          "transactionIndex": "0x0",
          "logIndex": "0x1",
          "removed": false
        }
      ],
      "logsBloom": "0x00000000800000000000000000000000000000000000000000000000000000000000000000000000000000000000000000000000000000000000000000000000000000000000000000000000000000080000000000000000000000000000000000000000000000000000000000000000000000000000000000000000000000000000000000000000000000000000000010000000000000000001000000000000080100000000000000000000000000000000000000000000000000000000000000000000000000000000080000000000000000000000000000000000000000000000000000000000000400000000000010000000000000000000000000000000",
      "type": "0x2",
      "transactionHash": "0xda65e3a8f2d931526302a92f79baacd1f17f5ba9ccdac7b3b80b513308af4743",
      "transactionIndex": "0x0",
      "blockHash": "0x58ec9622f1c1d67966c37c1fe1264b962c9f15fdd1b015c8e2e5a400911608d5",
      "blockNumber": "0x11b8e9",
      "gasUsed": "0x13ae4",
      "effectiveGasPrice": "0x8",
      "from": "0xc1612c97537c2cc62a11fc4516367ab6f62d4b23",
      "to": "0x0e26ade1f5a99bd6b5d40f870a87bfe143db68b6",
      "contractAddress": null
    },
    {
      "status": "0x1",
      "cumulativeGasUsed": "0x26cb0",
      "logs": [
        {
          "address": "0x0e26ade1f5a99bd6b5d40f870a87bfe143db68b6",
          "topics": [
            "0x29ef6e5e7533f5e04f1729a119b0acf31837e10f8a66e61d22dedd180d0221e9"
          ],
          "data": "0x0000000000000000000000005fe291dd7b6a35502a51814df5e51a461b9c085f",
          "blockHash": "0x58ec9622f1c1d67966c37c1fe1264b962c9f15fdd1b015c8e2e5a400911608d5",
          "blockNumber": "0x11b8e9",
          "blockTimestamp": "0x67afdcd4",
          "transactionHash": "0x22d4229f8e2b7c21e97e3ca849fb46125e33c11220746fe0cf4c3de39c84e7d2",
          "transactionIndex": "0x1",
          "logIndex": "0x2",
          "removed": false
        },
        {
          "address": "0x0e26ade1f5a99bd6b5d40f870a87bfe143db68b6",
          "topics": [
            "0x84f12763861d318f97fe38a0e6f70b46f0566462d67561978f0f4dff814031df"
          ],
          "data": "0x0000000000000000000000005fe291dd7b6a35502a51814df5e51a461b9c085f0000000000000000000000000000000000000000000000000000000000000000ffffffffffffffffffffffffffffffffffffffffffffffffffffffffffffffff00000000000000000000000000000000000000000000000000000000000003e8",
          "blockHash": "0x58ec9622f1c1d67966c37c1fe1264b962c9f15fdd1b015c8e2e5a400911608d5",
          "blockNumber": "0x11b8e9",
          "blockTimestamp": "0x67afdcd4",
          "transactionHash": "0x22d4229f8e2b7c21e97e3ca849fb46125e33c11220746fe0cf4c3de39c84e7d2",
          "transactionIndex": "0x1",
          "logIndex": "0x3",
          "removed": false
        }
      ],
      "logsBloom": "0x00000000800000000000000000000000000000000000000000000000000000000000000000000000000000000000000000000000000000000000000000000000000000000000000000000000000000080000000000000000000000000000000000000000000000000000000000000000000000000000000000000000000000000000000000000000000000000000000010000000000000000001000000000000080100000000000000000000000000000000000000000000000000000000000000000000000000000000080000000000000000000000000000000000000000000000000000000000000400000000000010000000000000000000000000000000",
      "type": "0x2",
      "transactionHash": "0x22d4229f8e2b7c21e97e3ca849fb46125e33c11220746fe0cf4c3de39c84e7d2",
      "transactionIndex": "0x1",
      "blockHash": "0x58ec9622f1c1d67966c37c1fe1264b962c9f15fdd1b015c8e2e5a400911608d5",
      "blockNumber": "0x11b8e9",
      "gasUsed": "0x131cc",
      "effectiveGasPrice": "0x8",
      "from": "0xc1612c97537c2cc62a11fc4516367ab6f62d4b23",
      "to": "0x0e26ade1f5a99bd6b5d40f870a87bfe143db68b6",
      "contractAddress": null
    },
    {
      "status": "0x1",
      "cumulativeGasUsed": "0x39563",
      "logs": [
        {
          "address": "0x0e26ade1f5a99bd6b5d40f870a87bfe143db68b6",
          "topics": [
            "0x29ef6e5e7533f5e04f1729a119b0acf31837e10f8a66e61d22dedd180d0221e9"
          ],
          "data": "0x0000000000000000000000003a60acd97fea737ddd3e8fb2070601c19ac22699",
          "blockHash": "0x58ec9622f1c1d67966c37c1fe1264b962c9f15fdd1b015c8e2e5a400911608d5",
          "blockNumber": "0x11b8e9",
          "blockTimestamp": "0x67afdcd4",
          "transactionHash": "0x4598a7d3a2f73bfe55825e42ecd676839b32b680d7e50fe65712fa776ae25588",
          "transactionIndex": "0x2",
          "logIndex": "0x4",
          "removed": false
        },
        {
          "address": "0x0e26ade1f5a99bd6b5d40f870a87bfe143db68b6",
          "topics": [
            "0x84f12763861d318f97fe38a0e6f70b46f0566462d67561978f0f4dff814031df"
          ],
          "data": "0x0000000000000000000000003a60acd97fea737ddd3e8fb2070601c19ac226990000000000000000000000000000000000000000000000000000000000000000ffffffffffffffffffffffffffffffffffffffffffffffffffffffffffffffff00000000000000000000000000000000000000000000000000000000000003e8",
          "blockHash": "0x58ec9622f1c1d67966c37c1fe1264b962c9f15fdd1b015c8e2e5a400911608d5",
          "blockNumber": "0x11b8e9",
          "blockTimestamp": "0x67afdcd4",
          "transactionHash": "0x4598a7d3a2f73bfe55825e42ecd676839b32b680d7e50fe65712fa776ae25588",
          "transactionIndex": "0x2",
          "logIndex": "0x5",
          "removed": false
        }
      ],
      "logsBloom": "0x00000000800000000000000000000000000000000000000000000000000000000000000000000000000000000000000000000000000000000000000000000000000000000000000000000000000000080000000000000000000000000000000000000000000000000000000000000000000000000000000000000000000000000000000000000000000000000000000010000000000000000001000000000000080100000000000000000000000000000000000000000000000000000000000000000000000000000000080000000000000000000000000000000000000000000000000000000000000400000000000010000000000000000000000000000000",
      "type": "0x2",
      "transactionHash": "0x4598a7d3a2f73bfe55825e42ecd676839b32b680d7e50fe65712fa776ae25588",
      "transactionIndex": "0x2",
      "blockHash": "0x58ec9622f1c1d67966c37c1fe1264b962c9f15fdd1b015c8e2e5a400911608d5",
      "blockNumber": "0x11b8e9",
      "gasUsed": "0x128b3",
      "effectiveGasPrice": "0x8",
      "from": "0xc1612c97537c2cc62a11fc4516367ab6f62d4b23",
      "to": "0x0e26ade1f5a99bd6b5d40f870a87bfe143db68b6",
      "contractAddress": null
    },
    {
      "status": "0x1",
      "cumulativeGasUsed": "0x4b4fe",
      "logs": [
        {
          "address": "0x0e26ade1f5a99bd6b5d40f870a87bfe143db68b6",
          "topics": [
            "0x29ef6e5e7533f5e04f1729a119b0acf31837e10f8a66e61d22dedd180d0221e9"
          ],
          "data": "0x0000000000000000000000007c76c4f1f0ae16fb6648c8a0abf9f19ad6c059d9",
          "blockHash": "0x58ec9622f1c1d67966c37c1fe1264b962c9f15fdd1b015c8e2e5a400911608d5",
          "blockNumber": "0x11b8e9",
          "blockTimestamp": "0x67afdcd4",
          "transactionHash": "0xfb78abd25bfb4a2d511f6527bfc13b7c5ec3b50cc0ef89e5bf04d7ac2bba9cf1",
          "transactionIndex": "0x3",
          "logIndex": "0x6",
          "removed": false
        },
        {
          "address": "0x0e26ade1f5a99bd6b5d40f870a87bfe143db68b6",
          "topics": [
            "0x84f12763861d318f97fe38a0e6f70b46f0566462d67561978f0f4dff814031df"
          ],
          "data": "0x0000000000000000000000007c76c4f1f0ae16fb6648c8a0abf9f19ad6c059d90000000000000000000000000000000000000000000000000000000000000000ffffffffffffffffffffffffffffffffffffffffffffffffffffffffffffffff00000000000000000000000000000000000000000000000000000000000003e8",
          "blockHash": "0x58ec9622f1c1d67966c37c1fe1264b962c9f15fdd1b015c8e2e5a400911608d5",
          "blockNumber": "0x11b8e9",
          "blockTimestamp": "0x67afdcd4",
          "transactionHash": "0xfb78abd25bfb4a2d511f6527bfc13b7c5ec3b50cc0ef89e5bf04d7ac2bba9cf1",
          "transactionIndex": "0x3",
          "logIndex": "0x7",
          "removed": false
        }
      ],
      "logsBloom": "0x00000000800000000000000000000000000000000000000000000000000000000000000000000000000000000000000000000000000000000000000000000000000000000000000000000000000000080000000000000000000000000000000000000000000000000000000000000000000000000000000000000000000000000000000000000000000000000000000010000000000000000001000000000000080100000000000000000000000000000000000000000000000000000000000000000000000000000000080000000000000000000000000000000000000000000000000000000000000400000000000010000000000000000000000000000000",
      "type": "0x2",
      "transactionHash": "0xfb78abd25bfb4a2d511f6527bfc13b7c5ec3b50cc0ef89e5bf04d7ac2bba9cf1",
      "transactionIndex": "0x3",
      "blockHash": "0x58ec9622f1c1d67966c37c1fe1264b962c9f15fdd1b015c8e2e5a400911608d5",
      "blockNumber": "0x11b8e9",
      "gasUsed": "0x11f9b",
      "effectiveGasPrice": "0x8",
      "from": "0xc1612c97537c2cc62a11fc4516367ab6f62d4b23",
      "to": "0x0e26ade1f5a99bd6b5d40f870a87bfe143db68b6",
      "contractAddress": null
    },
    {
      "status": "0x1",
      "cumulativeGasUsed": "0x11683",
      "logs": [
        {
          "address": "0x0e26ade1f5a99bd6b5d40f870a87bfe143db68b6",
          "topics": [
            "0x29ef6e5e7533f5e04f1729a119b0acf31837e10f8a66e61d22dedd180d0221e9"
          ],
          "data": "0x000000000000000000000000f84548d35a90d8b107019478188a3791f3b8f6c1",
          "blockHash": "0x69d66bd22ac7c1291bcd1366e896f8d14f60c61d62ee270339bb05b4344a16c8",
          "blockNumber": "0x11b8eb",
          "blockTimestamp": "0x67afdce8",
          "transactionHash": "0x86d3604296512cf34894ca449f46f916273c13a0cb3573a0f43e4468e2c4eb08",
          "transactionIndex": "0x0",
          "logIndex": "0x0",
          "removed": false
        },
        {
          "address": "0x0e26ade1f5a99bd6b5d40f870a87bfe143db68b6",
          "topics": [
            "0x84f12763861d318f97fe38a0e6f70b46f0566462d67561978f0f4dff814031df"
          ],
          "data": "0x000000000000000000000000f84548d35a90d8b107019478188a3791f3b8f6c10000000000000000000000000000000000000000000000000000000000000000ffffffffffffffffffffffffffffffffffffffffffffffffffffffffffffffff00000000000000000000000000000000000000000000000000000000000003e8",
          "blockHash": "0x69d66bd22ac7c1291bcd1366e896f8d14f60c61d62ee270339bb05b4344a16c8",
          "blockNumber": "0x11b8eb",
          "blockTimestamp": "0x67afdce8",
          "transactionHash": "0x86d3604296512cf34894ca449f46f916273c13a0cb3573a0f43e4468e2c4eb08",
          "transactionIndex": "0x0",
          "logIndex": "0x1",
          "removed": false
        }
      ],
      "logsBloom": "0x00000000800000000000000000000000000000000000000000000000000000000000000000000000000000000000000000000000000000000000000000000000000000000000000000000000000000080000000000000000000000000000000000000000000000000000000000000000000000000000000000000000000000000000000000000000000000000000000010000000000000000001000000000000080100000000000000000000000000000000000000000000000000000000000000000000000000000000080000000000000000000000000000000000000000000000000000000000000400000000000010000000000000000000000000000000",
      "type": "0x2",
      "transactionHash": "0x86d3604296512cf34894ca449f46f916273c13a0cb3573a0f43e4468e2c4eb08",
      "transactionIndex": "0x0",
      "blockHash": "0x69d66bd22ac7c1291bcd1366e896f8d14f60c61d62ee270339bb05b4344a16c8",
      "blockNumber": "0x11b8eb",
      "gasUsed": "0x11683",
      "effectiveGasPrice": "0x8",
      "from": "0xc1612c97537c2cc62a11fc4516367ab6f62d4b23",
      "to": "0x0e26ade1f5a99bd6b5d40f870a87bfe143db68b6",
      "contractAddress": null
    },
    {
      "status": "0x1",
      "cumulativeGasUsed": "0x10d6b",
      "logs": [
        {
          "address": "0x0e26ade1f5a99bd6b5d40f870a87bfe143db68b6",
          "topics": [
            "0x29ef6e5e7533f5e04f1729a119b0acf31837e10f8a66e61d22dedd180d0221e9"
          ],
          "data": "0x0000000000000000000000005cc307482eaba4c03526c00b6d6f5e05949550d9",
          "blockHash": "0x7e6fe8e780ca750168bea0839d234418a2b5fefe2dbeb03fcc87b8f3ef5e91a4",
          "blockNumber": "0x11b8ec",
          "blockTimestamp": "0x67afdcf2",
          "transactionHash": "0x61fa977ff3b5d15d8f97f91e63556bbfbec551d2c08bfd7cd3e0550574628abb",
          "transactionIndex": "0x0",
          "logIndex": "0x0",
          "removed": false
        },
        {
          "address": "0x0e26ade1f5a99bd6b5d40f870a87bfe143db68b6",
          "topics": [
            "0x84f12763861d318f97fe38a0e6f70b46f0566462d67561978f0f4dff814031df"
          ],
          "data": "0x0000000000000000000000005cc307482eaba4c03526c00b6d6f5e05949550d90000000000000000000000000000000000000000000000000000000000000000ffffffffffffffffffffffffffffffffffffffffffffffffffffffffffffffff00000000000000000000000000000000000000000000000000000000000003e8",
          "blockHash": "0x7e6fe8e780ca750168bea0839d234418a2b5fefe2dbeb03fcc87b8f3ef5e91a4",
          "blockNumber": "0x11b8ec",
          "blockTimestamp": "0x67afdcf2",
          "transactionHash": "0x61fa977ff3b5d15d8f97f91e63556bbfbec551d2c08bfd7cd3e0550574628abb",
          "transactionIndex": "0x0",
          "logIndex": "0x1",
          "removed": false
        }
      ],
      "logsBloom": "0x00000000800000000000000000000000000000000000000000000000000000000000000000000000000000000000000000000000000000000000000000000000000000000000000000000000000000080000000000000000000000000000000000000000000000000000000000000000000000000000000000000000000000000000000000000000000000000000000010000000000000000001000000000000080100000000000000000000000000000000000000000000000000000000000000000000000000000000080000000000000000000000000000000000000000000000000000000000000400000000000010000000000000000000000000000000",
      "type": "0x2",
      "transactionHash": "0x61fa977ff3b5d15d8f97f91e63556bbfbec551d2c08bfd7cd3e0550574628abb",
      "transactionIndex": "0x0",
      "blockHash": "0x7e6fe8e780ca750168bea0839d234418a2b5fefe2dbeb03fcc87b8f3ef5e91a4",
      "blockNumber": "0x11b8ec",
      "gasUsed": "0x10d6b",
      "effectiveGasPrice": "0x8",
      "from": "0xc1612c97537c2cc62a11fc4516367ab6f62d4b23",
      "to": "0x0e26ade1f5a99bd6b5d40f870a87bfe143db68b6",
      "contractAddress": null
    },
    {
      "status": "0x1",
      "cumulativeGasUsed": "0x211be",
      "logs": [
        {
          "address": "0x0e26ade1f5a99bd6b5d40f870a87bfe143db68b6",
          "topics": [
            "0x29ef6e5e7533f5e04f1729a119b0acf31837e10f8a66e61d22dedd180d0221e9"
          ],
          "data": "0x000000000000000000000000989251ff79b744736a91c617dde3d3b5da2c09ef",
          "blockHash": "0x7e6fe8e780ca750168bea0839d234418a2b5fefe2dbeb03fcc87b8f3ef5e91a4",
          "blockNumber": "0x11b8ec",
          "blockTimestamp": "0x67afdcf2",
          "transactionHash": "0xa2b5b55f7fe9dde74549b8b18e29ad6b8868f1857549f6b57fa3c7ac7a0df7b3",
          "transactionIndex": "0x1",
          "logIndex": "0x2",
          "removed": false
        },
        {
          "address": "0x0e26ade1f5a99bd6b5d40f870a87bfe143db68b6",
          "topics": [
            "0x84f12763861d318f97fe38a0e6f70b46f0566462d67561978f0f4dff814031df"
          ],
          "data": "0x000000000000000000000000989251ff79b744736a91c617dde3d3b5da2c09ef0000000000000000000000000000000000000000000000000000000000000000ffffffffffffffffffffffffffffffffffffffffffffffffffffffffffffffff00000000000000000000000000000000000000000000000000000000000003e8",
          "blockHash": "0x7e6fe8e780ca750168bea0839d234418a2b5fefe2dbeb03fcc87b8f3ef5e91a4",
          "blockNumber": "0x11b8ec",
          "blockTimestamp": "0x67afdcf2",
          "transactionHash": "0xa2b5b55f7fe9dde74549b8b18e29ad6b8868f1857549f6b57fa3c7ac7a0df7b3",
          "transactionIndex": "0x1",
          "logIndex": "0x3",
          "removed": false
        }
      ],
      "logsBloom": "0x00000000800000000000000000000000000000000000000000000000000000000000000000000000000000000000000000000000000000000000000000000000000000000000000000000000000000080000000000000000000000000000000000000000000000000000000000000000000000000000000000000000000000000000000000000000000000000000000010000000000000000001000000000000080100000000000000000000000000000000000000000000000000000000000000000000000000000000080000000000000000000000000000000000000000000000000000000000000400000000000010000000000000000000000000000000",
      "type": "0x2",
      "transactionHash": "0xa2b5b55f7fe9dde74549b8b18e29ad6b8868f1857549f6b57fa3c7ac7a0df7b3",
      "transactionIndex": "0x1",
      "blockHash": "0x7e6fe8e780ca750168bea0839d234418a2b5fefe2dbeb03fcc87b8f3ef5e91a4",
      "blockNumber": "0x11b8ec",
      "gasUsed": "0x10453",
      "effectiveGasPrice": "0x8",
      "from": "0xc1612c97537c2cc62a11fc4516367ab6f62d4b23",
      "to": "0x0e26ade1f5a99bd6b5d40f870a87bfe143db68b6",
      "contractAddress": null
    },
    {
      "status": "0x1",
      "cumulativeGasUsed": "0x2ffff",
      "logs": [
        {
          "address": "0x0e26ade1f5a99bd6b5d40f870a87bfe143db68b6",
          "topics": [
            "0x29ef6e5e7533f5e04f1729a119b0acf31837e10f8a66e61d22dedd180d0221e9"
          ],
          "data": "0x0000000000000000000000007e27fc84da5e35097982fda7b2c93e8ce4fb5817",
          "blockHash": "0x7e6fe8e780ca750168bea0839d234418a2b5fefe2dbeb03fcc87b8f3ef5e91a4",
          "blockNumber": "0x11b8ec",
          "blockTimestamp": "0x67afdcf2",
          "transactionHash": "0xbc0e0a57fe36b232130181eab93221ecfab3ce1f973e0133fb4fe9f177bcfea2",
          "transactionIndex": "0x2",
          "logIndex": "0x4",
          "removed": false
        },
        {
          "address": "0x0e26ade1f5a99bd6b5d40f870a87bfe143db68b6",
          "topics": [
            "0x84f12763861d318f97fe38a0e6f70b46f0566462d67561978f0f4dff814031df"
          ],
          "data": "0x0000000000000000000000007e27fc84da5e35097982fda7b2c93e8ce4fb58170000000000000000000000000000000000000000000000000000000000000000ffffffffffffffffffffffffffffffffffffffffffffffffffffffffffffffff00000000000000000000000000000000000000000000000000000000000003e8",
          "blockHash": "0x7e6fe8e780ca750168bea0839d234418a2b5fefe2dbeb03fcc87b8f3ef5e91a4",
          "blockNumber": "0x11b8ec",
          "blockTimestamp": "0x67afdcf2",
          "transactionHash": "0xbc0e0a57fe36b232130181eab93221ecfab3ce1f973e0133fb4fe9f177bcfea2",
          "transactionIndex": "0x2",
          "logIndex": "0x5",
          "removed": false
        }
      ],
      "logsBloom": "0x00000000800000000000000000000000000000000000000000000000000000000000000000000000000000000000000000000000000000000000000000000000000000000000000000000000000000080000000000000000000000000000000000000000000000000000000000000000000000000000000000000000000000000000000000000000000000000000000010000000000000000001000000000000080100000000000000000000000000000000000000000000000000000000000000000000000000000000080000000000000000000000000000000000000000000000000000000000000400000000000010000000000000000000000000000000",
      "type": "0x2",
      "transactionHash": "0xbc0e0a57fe36b232130181eab93221ecfab3ce1f973e0133fb4fe9f177bcfea2",
      "transactionIndex": "0x2",
      "blockHash": "0x7e6fe8e780ca750168bea0839d234418a2b5fefe2dbeb03fcc87b8f3ef5e91a4",
      "blockNumber": "0x11b8ec",
      "gasUsed": "0xee41",
      "effectiveGasPrice": "0x8",
      "from": "0xc1612c97537c2cc62a11fc4516367ab6f62d4b23",
      "to": "0x0e26ade1f5a99bd6b5d40f870a87bfe143db68b6",
      "contractAddress": null
    },
    {
      "status": "0x1",
      "cumulativeGasUsed": "0xe529",
      "logs": [
        {
          "address": "0x0e26ade1f5a99bd6b5d40f870a87bfe143db68b6",
          "topics": [
            "0x29ef6e5e7533f5e04f1729a119b0acf31837e10f8a66e61d22dedd180d0221e9"
          ],
          "data": "0x000000000000000000000000c8156af812714b8cedb540adec69fc104d99930b",
          "blockHash": "0x4f6a687e6bf0ec77cb111c0066f697f18af139fa250765082c077e2d832a3f45",
          "blockNumber": "0x11b8ee",
          "blockTimestamp": "0x67afdd06",
          "transactionHash": "0xecd57dcd3a6262802177cccab20e8f80ecb897f81097f169edfebba215628897",
          "transactionIndex": "0x0",
          "logIndex": "0x0",
          "removed": false
        },
        {
          "address": "0x0e26ade1f5a99bd6b5d40f870a87bfe143db68b6",
          "topics": [
            "0x84f12763861d318f97fe38a0e6f70b46f0566462d67561978f0f4dff814031df"
          ],
          "data": "0x000000000000000000000000c8156af812714b8cedb540adec69fc104d99930b0000000000000000000000000000000000000000000000000000000000000000ffffffffffffffffffffffffffffffffffffffffffffffffffffffffffffffff00000000000000000000000000000000000000000000000000000000000003e8",
          "blockHash": "0x4f6a687e6bf0ec77cb111c0066f697f18af139fa250765082c077e2d832a3f45",
          "blockNumber": "0x11b8ee",
          "blockTimestamp": "0x67afdd06",
          "transactionHash": "0xecd57dcd3a6262802177cccab20e8f80ecb897f81097f169edfebba215628897",
          "transactionIndex": "0x0",
          "logIndex": "0x1",
          "removed": false
        }
      ],
      "logsBloom": "0x00000000800000000000000000000000000000000000000000000000000000000000000000000000000000000000000000000000000000000000000000000000000000000000000000000000000000080000000000000000000000000000000000000000000000000000000000000000000000000000000000000000000000000000000000000000000000000000000010000000000000000001000000000000080100000000000000000000000000000000000000000000000000000000000000000000000000000000080000000000000000000000000000000000000000000000000000000000000400000000000010000000000000000000000000000000",
      "type": "0x2",
      "transactionHash": "0xecd57dcd3a6262802177cccab20e8f80ecb897f81097f169edfebba215628897",
      "transactionIndex": "0x0",
      "blockHash": "0x4f6a687e6bf0ec77cb111c0066f697f18af139fa250765082c077e2d832a3f45",
      "blockNumber": "0x11b8ee",
      "gasUsed": "0xe529",
      "effectiveGasPrice": "0x8",
      "from": "0xc1612c97537c2cc62a11fc4516367ab6f62d4b23",
      "to": "0x0e26ade1f5a99bd6b5d40f870a87bfe143db68b6",
      "contractAddress": null
    },
    {
      "status": "0x1",
      "cumulativeGasUsed": "0xdc11",
      "logs": [
        {
          "address": "0x0e26ade1f5a99bd6b5d40f870a87bfe143db68b6",
          "topics": [
            "0x29ef6e5e7533f5e04f1729a119b0acf31837e10f8a66e61d22dedd180d0221e9"
          ],
          "data": "0x000000000000000000000000356ccc8a7cbe1eadf0282e6c23278b0e67fb3f91",
          "blockHash": "0x7cf9f6efdea2423b28b15df86539b19536aa6bd74be93a1b4aba8b4d605d3af1",
          "blockNumber": "0x11b8ef",
          "blockTimestamp": "0x67afdd1f",
          "transactionHash": "0x50400aaedce6a46dd7e1e3dafb988011854c2190ff50084e803d60527f237b80",
          "transactionIndex": "0x0",
          "logIndex": "0x0",
          "removed": false
        },
        {
          "address": "0x0e26ade1f5a99bd6b5d40f870a87bfe143db68b6",
          "topics": [
            "0x84f12763861d318f97fe38a0e6f70b46f0566462d67561978f0f4dff814031df"
          ],
          "data": "0x000000000000000000000000356ccc8a7cbe1eadf0282e6c23278b0e67fb3f910000000000000000000000000000000000000000000000000000000000000000ffffffffffffffffffffffffffffffffffffffffffffffffffffffffffffffff00000000000000000000000000000000000000000000000000000000000003e8",
          "blockHash": "0x7cf9f6efdea2423b28b15df86539b19536aa6bd74be93a1b4aba8b4d605d3af1",
          "blockNumber": "0x11b8ef",
          "blockTimestamp": "0x67afdd1f",
          "transactionHash": "0x50400aaedce6a46dd7e1e3dafb988011854c2190ff50084e803d60527f237b80",
          "transactionIndex": "0x0",
          "logIndex": "0x1",
          "removed": false
        }
      ],
      "logsBloom": "0x00000000800000000000000000000000000000000000000000000000000000000000000000000000000000000000000000000000000000000000000000000000000000000000000000000000000000080000000000000000000000000000000000000000000000000000000000000000000000000000000000000000000000000000000000000000000000000000000010000000000000000001000000000000080100000000000000000000000000000000000000000000000000000000000000000000000000000000080000000000000000000000000000000000000000000000000000000000000400000000000010000000000000000000000000000000",
      "type": "0x2",
      "transactionHash": "0x50400aaedce6a46dd7e1e3dafb988011854c2190ff50084e803d60527f237b80",
      "transactionIndex": "0x0",
      "blockHash": "0x7cf9f6efdea2423b28b15df86539b19536aa6bd74be93a1b4aba8b4d605d3af1",
      "blockNumber": "0x11b8ef",
      "gasUsed": "0xdc11",
      "effectiveGasPrice": "0x8",
      "from": "0xc1612c97537c2cc62a11fc4516367ab6f62d4b23",
      "to": "0x0e26ade1f5a99bd6b5d40f870a87bfe143db68b6",
      "contractAddress": null
    },
    {
      "status": "0x1",
      "cumulativeGasUsed": "0x1af0a",
      "logs": [
        {
          "address": "0x0e26ade1f5a99bd6b5d40f870a87bfe143db68b6",
          "topics": [
            "0x29ef6e5e7533f5e04f1729a119b0acf31837e10f8a66e61d22dedd180d0221e9"
          ],
          "data": "0x0000000000000000000000005404f8b4f4625cff045a3076bc28c250a71e4507",
          "blockHash": "0x7cf9f6efdea2423b28b15df86539b19536aa6bd74be93a1b4aba8b4d605d3af1",
          "blockNumber": "0x11b8ef",
          "blockTimestamp": "0x67afdd1f",
          "transactionHash": "0x0c02be30b5346d4a384295d18fc6439939d148b118884c21d041abb95dadc9cc",
          "transactionIndex": "0x1",
          "logIndex": "0x2",
          "removed": false
        },
        {
          "address": "0x0e26ade1f5a99bd6b5d40f870a87bfe143db68b6",
          "topics": [
            "0x84f12763861d318f97fe38a0e6f70b46f0566462d67561978f0f4dff814031df"
          ],
          "data": "0x0000000000000000000000005404f8b4f4625cff045a3076bc28c250a71e45070000000000000000000000000000000000000000000000000000000000000000ffffffffffffffffffffffffffffffffffffffffffffffffffffffffffffffff00000000000000000000000000000000000000000000000000000000000003e8",
          "blockHash": "0x7cf9f6efdea2423b28b15df86539b19536aa6bd74be93a1b4aba8b4d605d3af1",
          "blockNumber": "0x11b8ef",
          "blockTimestamp": "0x67afdd1f",
          "transactionHash": "0x0c02be30b5346d4a384295d18fc6439939d148b118884c21d041abb95dadc9cc",
          "transactionIndex": "0x1",
          "logIndex": "0x3",
          "removed": false
        }
      ],
      "logsBloom": "0x00000000800000000000000000000000000000000000000000000000000000000000000000000000000000000000000000000000000000000000000000000000000000000000000000000000000000080000000000000000000000000000000000000000000000000000000000000000000000000000000000000000000000000000000000000000000000000000000010000000000000000001000000000000080100000000000000000000000000000000000000000000000000000000000000000000000000000000080000000000000000000000000000000000000000000000000000000000000400000000000010000000000000000000000000000000",
      "type": "0x2",
      "transactionHash": "0x0c02be30b5346d4a384295d18fc6439939d148b118884c21d041abb95dadc9cc",
      "transactionIndex": "0x1",
      "blockHash": "0x7cf9f6efdea2423b28b15df86539b19536aa6bd74be93a1b4aba8b4d605d3af1",
      "blockNumber": "0x11b8ef",
      "gasUsed": "0xd2f9",
      "effectiveGasPrice": "0x8",
      "from": "0xc1612c97537c2cc62a11fc4516367ab6f62d4b23",
      "to": "0x0e26ade1f5a99bd6b5d40f870a87bfe143db68b6",
      "contractAddress": null
    },
    {
      "status": "0x1",
      "cumulativeGasUsed": "0xc9e1",
      "logs": [
        {
          "address": "0x0e26ade1f5a99bd6b5d40f870a87bfe143db68b6",
          "topics": [
            "0x29ef6e5e7533f5e04f1729a119b0acf31837e10f8a66e61d22dedd180d0221e9"
          ],
          "data": "0x000000000000000000000000838130a2020f602dd9e08e370c3494777104b2c0",
          "blockHash": "0x03db07be7b79265893c781fcdcd9d6f325eb1f23caa42371fe623d8807b87c66",
          "blockNumber": "0x11b8f0",
          "blockTimestamp": "0x67afdd29",
          "transactionHash": "0x1dabb26b1f8284eaf3bb1f7d288f136c7dc24a1441d9ae2c4a3f00daeb05c771",
          "transactionIndex": "0x0",
          "logIndex": "0x0",
          "removed": false
        },
        {
          "address": "0x0e26ade1f5a99bd6b5d40f870a87bfe143db68b6",
          "topics": [
            "0x84f12763861d318f97fe38a0e6f70b46f0566462d67561978f0f4dff814031df"
          ],
          "data": "0x000000000000000000000000838130a2020f602dd9e08e370c3494777104b2c00000000000000000000000000000000000000000000000000000000000000000ffffffffffffffffffffffffffffffffffffffffffffffffffffffffffffffff00000000000000000000000000000000000000000000000000000000000003e8",
          "blockHash": "0x03db07be7b79265893c781fcdcd9d6f325eb1f23caa42371fe623d8807b87c66",
          "blockNumber": "0x11b8f0",
          "blockTimestamp": "0x67afdd29",
          "transactionHash": "0x1dabb26b1f8284eaf3bb1f7d288f136c7dc24a1441d9ae2c4a3f00daeb05c771",
          "transactionIndex": "0x0",
          "logIndex": "0x1",
          "removed": false
        }
      ],
      "logsBloom": "0x00000000800000000000000000000000000000000000000000000000000000000000000000000000000000000000000000000000000000000000000000000000000000000000000000000000000000080000000000000000000000000000000000000000000000000000000000000000000000000000000000000000000000000000000000000000000000000000000010000000000000000001000000000000080100000000000000000000000000000000000000000000000000000000000000000000000000000000080000000000000000000000000000000000000000000000000000000000000400000000000010000000000000000000000000000000",
      "type": "0x2",
      "transactionHash": "0x1dabb26b1f8284eaf3bb1f7d288f136c7dc24a1441d9ae2c4a3f00daeb05c771",
      "transactionIndex": "0x0",
      "blockHash": "0x03db07be7b79265893c781fcdcd9d6f325eb1f23caa42371fe623d8807b87c66",
      "blockNumber": "0x11b8f0",
      "gasUsed": "0xc9e1",
      "effectiveGasPrice": "0x8",
      "from": "0xc1612c97537c2cc62a11fc4516367ab6f62d4b23",
      "to": "0x0e26ade1f5a99bd6b5d40f870a87bfe143db68b6",
      "contractAddress": null
    },
    {
      "status": "0x1",
      "cumulativeGasUsed": "0xc0c9",
      "logs": [
        {
          "address": "0x0e26ade1f5a99bd6b5d40f870a87bfe143db68b6",
          "topics": [
            "0x29ef6e5e7533f5e04f1729a119b0acf31837e10f8a66e61d22dedd180d0221e9"
          ],
          "data": "0x0000000000000000000000006d780b5e1104f3f30f5976d3d3db16431e761148",
          "blockHash": "0xd65cef2f8147c4249b78f5b13ca3f6cc1a12e409c9fa19f7338a307be9ea37d4",
          "blockNumber": "0x11b8f1",
          "blockTimestamp": "0x67afdd42",
          "transactionHash": "0x200f293bbff9bda3b8fbb081990fa4b393a4cd2597d72968eca838af7fe302c0",
          "transactionIndex": "0x0",
          "logIndex": "0x0",
          "removed": false
        },
        {
          "address": "0x0e26ade1f5a99bd6b5d40f870a87bfe143db68b6",
          "topics": [
            "0x84f12763861d318f97fe38a0e6f70b46f0566462d67561978f0f4dff814031df"
          ],
          "data": "0x0000000000000000000000006d780b5e1104f3f30f5976d3d3db16431e7611480000000000000000000000000000000000000000000000000000000000000000ffffffffffffffffffffffffffffffffffffffffffffffffffffffffffffffff00000000000000000000000000000000000000000000000000000000000003e8",
          "blockHash": "0xd65cef2f8147c4249b78f5b13ca3f6cc1a12e409c9fa19f7338a307be9ea37d4",
          "blockNumber": "0x11b8f1",
          "blockTimestamp": "0x67afdd42",
          "transactionHash": "0x200f293bbff9bda3b8fbb081990fa4b393a4cd2597d72968eca838af7fe302c0",
          "transactionIndex": "0x0",
          "logIndex": "0x1",
          "removed": false
        }
      ],
      "logsBloom": "0x00000000800000000000000000000000000000000000000000000000000000000000000000000000000000000000000000000000000000000000000000000000000000000000000000000000000000080000000000000000000000000000000000000000000000000000000000000000000000000000000000000000000000000000000000000000000000000000000010000000000000000001000000000000080100000000000000000000000000000000000000000000000000000000000000000000000000000000080000000000000000000000000000000000000000000000000000000000000400000000000010000000000000000000000000000000",
      "type": "0x2",
      "transactionHash": "0x200f293bbff9bda3b8fbb081990fa4b393a4cd2597d72968eca838af7fe302c0",
      "transactionIndex": "0x0",
      "blockHash": "0xd65cef2f8147c4249b78f5b13ca3f6cc1a12e409c9fa19f7338a307be9ea37d4",
      "blockNumber": "0x11b8f1",
      "gasUsed": "0xc0c9",
      "effectiveGasPrice": "0x8",
      "from": "0xc1612c97537c2cc62a11fc4516367ab6f62d4b23",
      "to": "0x0e26ade1f5a99bd6b5d40f870a87bfe143db68b6",
      "contractAddress": null
    },
    {
      "status": "0x1",
      "cumulativeGasUsed": "0x1787a",
      "logs": [
        {
          "address": "0x0e26ade1f5a99bd6b5d40f870a87bfe143db68b6",
          "topics": [
            "0x29ef6e5e7533f5e04f1729a119b0acf31837e10f8a66e61d22dedd180d0221e9"
          ],
          "data": "0x0000000000000000000000001c74574848d67ab4fbc8c24f21a0f44a10370fda",
          "blockHash": "0xd65cef2f8147c4249b78f5b13ca3f6cc1a12e409c9fa19f7338a307be9ea37d4",
          "blockNumber": "0x11b8f1",
          "blockTimestamp": "0x67afdd42",
          "transactionHash": "0xad6e7567b886360705ccf44cb6ab3e19516e3529edd03d7128d69e49103427e3",
          "transactionIndex": "0x1",
          "logIndex": "0x2",
          "removed": false
        },
        {
          "address": "0x0e26ade1f5a99bd6b5d40f870a87bfe143db68b6",
          "topics": [
            "0x84f12763861d318f97fe38a0e6f70b46f0566462d67561978f0f4dff814031df"
          ],
          "data": "0x0000000000000000000000001c74574848d67ab4fbc8c24f21a0f44a10370fda0000000000000000000000000000000000000000000000000000000000000000ffffffffffffffffffffffffffffffffffffffffffffffffffffffffffffffff00000000000000000000000000000000000000000000000000000000000003e8",
          "blockHash": "0xd65cef2f8147c4249b78f5b13ca3f6cc1a12e409c9fa19f7338a307be9ea37d4",
          "blockNumber": "0x11b8f1",
          "blockTimestamp": "0x67afdd42",
          "transactionHash": "0xad6e7567b886360705ccf44cb6ab3e19516e3529edd03d7128d69e49103427e3",
          "transactionIndex": "0x1",
          "logIndex": "0x3",
          "removed": false
        }
      ],
      "logsBloom": "0x00000000800000000000000000000000000000000000000000000000000000000000000000000000000000000000000000000000000000000000000000000000000000000000000000000000000000080000000000000000000000000000000000000000000000000000000000000000000000000000000000000000000000000000000000000000000000000000000010000000000000000001000000000000080100000000000000000000000000000000000000000000000000000000000000000000000000000000080000000000000000000000000000000000000000000000000000000000000400000000000010000000000000000000000000000000",
      "type": "0x2",
      "transactionHash": "0xad6e7567b886360705ccf44cb6ab3e19516e3529edd03d7128d69e49103427e3",
      "transactionIndex": "0x1",
      "blockHash": "0xd65cef2f8147c4249b78f5b13ca3f6cc1a12e409c9fa19f7338a307be9ea37d4",
      "blockNumber": "0x11b8f1",
      "gasUsed": "0xb7b1",
      "effectiveGasPrice": "0x8",
      "from": "0xc1612c97537c2cc62a11fc4516367ab6f62d4b23",
      "to": "0x0e26ade1f5a99bd6b5d40f870a87bfe143db68b6",
      "contractAddress": null
    }
  ],
  "libraries": [],
  "pending": [],
  "returns": {},
  "timestamp": 1739578677,
  "chain": 2017,
  "commit": "1419309"
}