{
  "transactions": [
    {
      "hash": "0xf0c9e035bf99862abd28262af79ef532ed92313d0b99a21adc2959e950a76d0f",
      "transactionType": "CALL",
      "contractName": null,
      "contractAddress": "0x0e26ade1f5a99bd6b5d40f870a87bfe143db68b6",
      "function": "UpdateXYZ(address,bool,uint256,uint256)",
      "arguments": [
        "0x25D45a942405834B963c84b66418514c81b2f8c7",
        "true",
        "115792089237316195423570985008687907853269984665640564039457584007913129639935",
        "1000"
      ],
      "transaction": {
        "from": "0xc1612c97537c2cc62a11fc4516367ab6f62d4b23",
        "to": "0x0e26ade1f5a99bd6b5d40f870a87bfe143db68b6",
        "gas": "0x1e792",
        "value": "0x0",
        "input": "0xe9aea39600000000000000000000000025d45a942405834b963c84b66418514c81b2f8c70000000000000000000000000000000000000000000000000000000000000001ffffffffffffffffffffffffffffffffffffffffffffffffffffffffffffffff00000000000000000000000000000000000000000000000000000000000003e8",
        "nonce": "0x90",
        "chainId": "0x7e1"
      },
      "additionalContracts": [],
      "isFixedGasLimit": false
    },
    {
      "hash": "0x0cc2751c5ef691d641f58d92f8f5cef853664aba87226483d6919be545d295ec",
      "transactionType": "CALL",
      "contractName": null,
      "contractAddress": "0x0e26ade1f5a99bd6b5d40f870a87bfe143db68b6",
      "function": "UpdateXYZ(address,bool,uint256,uint256)",
      "arguments": [
        "0x5fe291dD7b6A35502a51814df5E51A461B9c085f",
        "true",
        "115792089237316195423570985008687907853269984665640564039457584007913129639935",
        "1000"
      ],
      "transaction": {
        "from": "0xc1612c97537c2cc62a11fc4516367ab6f62d4b23",
        "to": "0x0e26ade1f5a99bd6b5d40f870a87bfe143db68b6",
        "gas": "0x1f422",
        "value": "0x0",
        "input": "0xe9aea3960000000000000000000000005fe291dd7b6a35502a51814df5e51a461b9c085f0000000000000000000000000000000000000000000000000000000000000001ffffffffffffffffffffffffffffffffffffffffffffffffffffffffffffffff00000000000000000000000000000000000000000000000000000000000003e8",
        "nonce": "0x91",
        "chainId": "0x7e1"
      },
      "additionalContracts": [],
      "isFixedGasLimit": false
    },
    {
      "hash": "0x0980d9c3c386bcb1afb13fd331d3d4aa754971b4d43d4531d9d4a23b946956f4",
      "transactionType": "CALL",
      "contractName": null,
      "contractAddress": "0x0e26ade1f5a99bd6b5d40f870a87bfe143db68b6",
      "function": "UpdateXYZ(address,bool,uint256,uint256)",
      "arguments": [
        "0x3A60aCD97fEA737ddD3e8FB2070601c19Ac22699",
        "true",
        "115792089237316195423570985008687907853269984665640564039457584007913129639935",
        "1000"
      ],
      "transaction": {
        "from": "0xc1612c97537c2cc62a11fc4516367ab6f62d4b23",
        "to": "0x0e26ade1f5a99bd6b5d40f870a87bfe143db68b6",
        "gas": "0x200b1",
        "value": "0x0",
        "input": "0xe9aea3960000000000000000000000003a60acd97fea737ddd3e8fb2070601c19ac226990000000000000000000000000000000000000000000000000000000000000001ffffffffffffffffffffffffffffffffffffffffffffffffffffffffffffffff00000000000000000000000000000000000000000000000000000000000003e8",
        "nonce": "0x92",
        "chainId": "0x7e1"
      },
      "additionalContracts": [],
      "isFixedGasLimit": false
    },
    {
      "hash": "0xffc3de41cbed7469d8354770ec8dbfebdc8645d1d0cc2ca318416ee7ba4bcf73",
      "transactionType": "CALL",
      "contractName": null,
      "contractAddress": "0x0e26ade1f5a99bd6b5d40f870a87bfe143db68b6",
      "function": "UpdateXYZ(address,bool,uint256,uint256)",
      "arguments": [
        "0x7c76C4F1F0ae16Fb6648C8a0aBF9F19ad6c059d9",
        "true",
        "115792089237316195423570985008687907853269984665640564039457584007913129639935",
        "1000"
      ],
      "transaction": {
        "from": "0xc1612c97537c2cc62a11fc4516367ab6f62d4b23",
        "to": "0x0e26ade1f5a99bd6b5d40f870a87bfe143db68b6",
        "gas": "0x2e3fe",
        "value": "0x0",
        "input": "0xe9aea3960000000000000000000000007c76c4f1f0ae16fb6648c8a0abf9f19ad6c059d90000000000000000000000000000000000000000000000000000000000000001ffffffffffffffffffffffffffffffffffffffffffffffffffffffffffffffff00000000000000000000000000000000000000000000000000000000000003e8",
        "nonce": "0x93",
        "chainId": "0x7e1"
      },
      "additionalContracts": [],
      "isFixedGasLimit": false
    },
    {
      "hash": "0x00f2ae347fcf91ec58da629ad469db9d94f6dcdc3737324e36b0bb37fda56eef",
      "transactionType": "CALL",
      "contractName": null,
      "contractAddress": "0x0e26ade1f5a99bd6b5d40f870a87bfe143db68b6",
      "function": "UpdateXYZ(address,bool,uint256,uint256)",
      "arguments": [
        "0xF84548d35A90d8B107019478188a3791f3b8f6C1",
        "true",
        "115792089237316195423570985008687907853269984665640564039457584007913129639935",
        "1000"
      ],
      "transaction": {
        "from": "0xc1612c97537c2cc62a11fc4516367ab6f62d4b23",
        "to": "0x0e26ade1f5a99bd6b5d40f870a87bfe143db68b6",
        "gas": "0x219d0",
        "value": "0x0",
        "input": "0xe9aea396000000000000000000000000f84548d35a90d8b107019478188a3791f3b8f6c10000000000000000000000000000000000000000000000000000000000000001ffffffffffffffffffffffffffffffffffffffffffffffffffffffffffffffff00000000000000000000000000000000000000000000000000000000000003e8",
        "nonce": "0x94",
        "chainId": "0x7e1"
      },
      "additionalContracts": [],
      "isFixedGasLimit": false
    },
    {
      "hash": "0x2a5f639459459c70fb65d2f3db52ab17a4031b3665547c236ffdcebd415ae2bd",
      "transactionType": "CALL",
      "contractName": null,
      "contractAddress": "0x0e26ade1f5a99bd6b5d40f870a87bfe143db68b6",
      "function": "UpdateXYZ(address,bool,uint256,uint256)",
      "arguments": [
        "0x5Cc307482EabA4C03526C00B6D6f5e05949550d9",
        "true",
        "115792089237316195423570985008687907853269984665640564039457584007913129639935",
        "1000"
      ],
      "transaction": {
        "from": "0xc1612c97537c2cc62a11fc4516367ab6f62d4b23",
        "to": "0x0e26ade1f5a99bd6b5d40f870a87bfe143db68b6",
        "gas": "0x22660",
        "value": "0x0",
        "input": "0xe9aea3960000000000000000000000005cc307482eaba4c03526c00b6d6f5e05949550d90000000000000000000000000000000000000000000000000000000000000001ffffffffffffffffffffffffffffffffffffffffffffffffffffffffffffffff00000000000000000000000000000000000000000000000000000000000003e8",
        "nonce": "0x95",
        "chainId": "0x7e1"
      },
      "additionalContracts": [],
      "isFixedGasLimit": false
    },
    {
      "hash": "0xd9361c881ba211ef7e6677f3845db11b37911d50e011c528f5098274ff26b95f",
      "transactionType": "CALL",
      "contractName": null,
      "contractAddress": "0x0e26ade1f5a99bd6b5d40f870a87bfe143db68b6",
      "function": "UpdateXYZ(address,bool,uint256,uint256)",
      "arguments": [
        "0x989251Ff79b744736a91c617DDE3D3b5Da2C09Ef",
        "true",
        "115792089237316195423570985008687907853269984665640564039457584007913129639935",
        "1000"
      ],
      "transaction": {
        "from": "0xc1612c97537c2cc62a11fc4516367ab6f62d4b23",
        "to": "0x0e26ade1f5a99bd6b5d40f870a87bfe143db68b6",
        "gas": "0x232ef",
        "value": "0x0",
        "input": "0xe9aea396000000000000000000000000989251ff79b744736a91c617dde3d3b5da2c09ef0000000000000000000000000000000000000000000000000000000000000001ffffffffffffffffffffffffffffffffffffffffffffffffffffffffffffffff00000000000000000000000000000000000000000000000000000000000003e8",
        "nonce": "0x96",
        "chainId": "0x7e1"
      },
      "additionalContracts": [],
      "isFixedGasLimit": false
    },
    {
      "hash": "0x8a966db9ab48cdea857c6dc0ecc39de9916adb4a21df062194e763a748fb51be",
      "transactionType": "CALL",
      "contractName": null,
      "contractAddress": "0x0e26ade1f5a99bd6b5d40f870a87bfe143db68b6",
      "function": "UpdateXYZ(address,bool,uint256,uint256)",
      "arguments": [
        "0x7e27fC84da5e35097982fdA7b2C93E8cE4FB5817",
        "true",
        "115792089237316195423570985008687907853269984665640564039457584007913129639935",
        "1000"
      ],
      "transaction": {
        "from": "0xc1612c97537c2cc62a11fc4516367ab6f62d4b23",
        "to": "0x0e26ade1f5a99bd6b5d40f870a87bfe143db68b6",
        "gas": "0x23f7f",
        "value": "0x0",
        "input": "0xe9aea3960000000000000000000000007e27fc84da5e35097982fda7b2c93e8ce4fb58170000000000000000000000000000000000000000000000000000000000000001ffffffffffffffffffffffffffffffffffffffffffffffffffffffffffffffff00000000000000000000000000000000000000000000000000000000000003e8",
        "nonce": "0x97",
        "chainId": "0x7e1"
      },
      "additionalContracts": [],
      "isFixedGasLimit": false
    },
    {
      "hash": "0x92923b1dbc6e300880ed9d87cebcb228799261231062c802de303b3a9e0d4e4c",
      "transactionType": "CALL",
      "contractName": null,
      "contractAddress": "0x0e26ade1f5a99bd6b5d40f870a87bfe143db68b6",
      "function": "UpdateXYZ(address,bool,uint256,uint256)",
      "arguments": [
        "0xC8156aF812714b8cedb540AdEc69FC104d99930B",
        "true",
        "115792089237316195423570985008687907853269984665640564039457584007913129639935",
        "1000"
      ],
      "transaction": {
        "from": "0xc1612c97537c2cc62a11fc4516367ab6f62d4b23",
        "to": "0x0e26ade1f5a99bd6b5d40f870a87bfe143db68b6",
        "gas": "0x24c0e",
        "value": "0x0",
        "input": "0xe9aea396000000000000000000000000c8156af812714b8cedb540adec69fc104d99930b0000000000000000000000000000000000000000000000000000000000000001ffffffffffffffffffffffffffffffffffffffffffffffffffffffffffffffff00000000000000000000000000000000000000000000000000000000000003e8",
        "nonce": "0x98",
        "chainId": "0x7e1"
      },
      "additionalContracts": [],
      "isFixedGasLimit": false
    },
    {
      "hash": "0xce3258b214c8b479442dd377d08c74e6e28c1cc6cb8df3fc45357b51b94be8eb",
      "transactionType": "CALL",
      "contractName": null,
      "contractAddress": "0x0e26ade1f5a99bd6b5d40f870a87bfe143db68b6",
      "function": "UpdateXYZ(address,bool,uint256,uint256)",
      "arguments": [
        "0x356Ccc8a7cBE1EADF0282E6C23278B0e67fB3f91",
        "true",
        "115792089237316195423570985008687907853269984665640564039457584007913129639935",
        "1000"
      ],
      "transaction": {
        "from": "0xc1612c97537c2cc62a11fc4516367ab6f62d4b23",
        "to": "0x0e26ade1f5a99bd6b5d40f870a87bfe143db68b6",
        "gas": "0x2589e",
        "value": "0x0",
        "input": "0xe9aea396000000000000000000000000356ccc8a7cbe1eadf0282e6c23278b0e67fb3f910000000000000000000000000000000000000000000000000000000000000001ffffffffffffffffffffffffffffffffffffffffffffffffffffffffffffffff00000000000000000000000000000000000000000000000000000000000003e8",
        "nonce": "0x99",
        "chainId": "0x7e1"
      },
      "additionalContracts": [],
      "isFixedGasLimit": false
    },
    {
      "hash": "0xb9edba3cdd39c1168352cfb82d74d4812a7ca95b94c9ddaf91389b0a13ee59f4",
      "transactionType": "CALL",
      "contractName": null,
      "contractAddress": "0x0e26ade1f5a99bd6b5d40f870a87bfe143db68b6",
      "function": "UpdateXYZ(address,bool,uint256,uint256)",
      "arguments": [
        "0x5404F8B4F4625CFf045A3076Bc28c250a71E4507",
        "true",
        "115792089237316195423570985008687907853269984665640564039457584007913129639935",
        "1000"
      ],
      "transaction": {
        "from": "0xc1612c97537c2cc62a11fc4516367ab6f62d4b23",
        "to": "0x0e26ade1f5a99bd6b5d40f870a87bfe143db68b6",
        "gas": "0x2652d",
        "value": "0x0",
        "input": "0xe9aea3960000000000000000000000005404f8b4f4625cff045a3076bc28c250a71e45070000000000000000000000000000000000000000000000000000000000000001ffffffffffffffffffffffffffffffffffffffffffffffffffffffffffffffff00000000000000000000000000000000000000000000000000000000000003e8",
        "nonce": "0x9a",
        "chainId": "0x7e1"
      },
      "additionalContracts": [],
      "isFixedGasLimit": false
    }
  ],
  "receipts": [
    {
      "status": "0x1",
      "cumulativeGasUsed": "0x160ff",
      "logs": [
        {
          "address": "0x0e26ade1f5a99bd6b5d40f870a87bfe143db68b6",
          "topics": [
            "0xc039c75cef0904723584eecbad08281b7298a16c9fadc7dbbb576359df79c1de"
          ],
          "data": "0x00000000000000000000000025d45a942405834b963c84b66418514c81b2f8c7",
          "blockHash": "0xe6aed61a8eef57e457775c7c0b64bc1b45a0f2e17fd3923753c4e82bcd636151",
          "blockNumber": "0x118945",
          "blockTimestamp": "0x67ad2c65",
          "transactionHash": "0xf0c9e035bf99862abd28262af79ef532ed92313d0b99a21adc2959e950a76d0f",
          "transactionIndex": "0x0",
          "logIndex": "0x0",
          "removed": false
        },
        {
          "address": "0x0e26ade1f5a99bd6b5d40f870a87bfe143db68b6",
          "topics": [
            "0x84f12763861d318f97fe38a0e6f70b46f0566462d67561978f0f4dff814031df"
          ],
          "data": "0x00000000000000000000000025d45a942405834b963c84b66418514c81b2f8c70000000000000000000000000000000000000000000000000000000000000001ffffffffffffffffffffffffffffffffffffffffffffffffffffffffffffffff00000000000000000000000000000000000000000000000000000000000003e8",
          "blockHash": "0xe6aed61a8eef57e457775c7c0b64bc1b45a0f2e17fd3923753c4e82bcd636151",
          "blockNumber": "0x118945",
          "blockTimestamp": "0x67ad2c65",
          "transactionHash": "0xf0c9e035bf99862abd28262af79ef532ed92313d0b99a21adc2959e950a76d0f",
          "transactionIndex": "0x0",
          "logIndex": "0x1",
          "removed": false
        }
      ],
      "logsBloom": "0x00000000000000000000000000000000000000000010000000000000000000000000000000000000000000000000000000000000000000000000000028000000000000000000000000000000000000000000000000000000000000000000000000000000000000000000000000000000000000000000000000000000000000000000000000000000000000000000000010000000000000000000000000000000080100000000000000000000000000000000000000000000000000000000000000000000000000000000080000000000000000000000000000000000000000000000000000000000000400000000000010000000000000000000000000000000",
      "type": "0x2",
      "transactionHash": "0xf0c9e035bf99862abd28262af79ef532ed92313d0b99a21adc2959e950a76d0f",
      "transactionIndex": "0x0",
      "blockHash": "0xe6aed61a8eef57e457775c7c0b64bc1b45a0f2e17fd3923753c4e82bcd636151",
      "blockNumber": "0x118945",
      "gasUsed": "0x160ff",
      "effectiveGasPrice": "0x8",
      "from": "0xc1612c97537c2cc62a11fc4516367ab6f62d4b23",
      "to": "0x0e26ade1f5a99bd6b5d40f870a87bfe143db68b6",
      "contractAddress": null
    },
    {
      "status": "0x1",
      "cumulativeGasUsed": "0x2cb16",
      "logs": [
        {
          "address": "0x0e26ade1f5a99bd6b5d40f870a87bfe143db68b6",
          "topics": [
            "0xc039c75cef0904723584eecbad08281b7298a16c9fadc7dbbb576359df79c1de"
          ],
          "data": "0x0000000000000000000000005fe291dd7b6a35502a51814df5e51a461b9c085f",
          "blockHash": "0xe6aed61a8eef57e457775c7c0b64bc1b45a0f2e17fd3923753c4e82bcd636151",
          "blockNumber": "0x118945",
          "blockTimestamp": "0x67ad2c65",
          "transactionHash": "0x0cc2751c5ef691d641f58d92f8f5cef853664aba87226483d6919be545d295ec",
          "transactionIndex": "0x1",
          "logIndex": "0x2",
          "removed": false
        },
        {
          "address": "0x0e26ade1f5a99bd6b5d40f870a87bfe143db68b6",
          "topics": [
            "0x84f12763861d318f97fe38a0e6f70b46f0566462d67561978f0f4dff814031df"
          ],
          "data": "0x0000000000000000000000005fe291dd7b6a35502a51814df5e51a461b9c085f0000000000000000000000000000000000000000000000000000000000000001ffffffffffffffffffffffffffffffffffffffffffffffffffffffffffffffff00000000000000000000000000000000000000000000000000000000000003e8",
          "blockHash": "0xe6aed61a8eef57e457775c7c0b64bc1b45a0f2e17fd3923753c4e82bcd636151",
          "blockNumber": "0x118945",
          "blockTimestamp": "0x67ad2c65",
          "transactionHash": "0x0cc2751c5ef691d641f58d92f8f5cef853664aba87226483d6919be545d295ec",
          "transactionIndex": "0x1",
          "logIndex": "0x3",
          "removed": false
        }
      ],
      "logsBloom": "0x00000000000000000000000000000000000000000010000000000000000000000000000000000000000000000000000000000000000000000000000028000000000000000000000000000000000000000000000000000000000000000000000000000000000000000000000000000000000000000000000000000000000000000000000000000000000000000000000010000000000000000000000000000000080100000000000000000000000000000000000000000000000000000000000000000000000000000000080000000000000000000000000000000000000000000000000000000000000400000000000010000000000000000000000000000000",
      "type": "0x2",
      "transactionHash": "0x0cc2751c5ef691d641f58d92f8f5cef853664aba87226483d6919be545d295ec",
      "transactionIndex": "0x1",
      "blockHash": "0xe6aed61a8eef57e457775c7c0b64bc1b45a0f2e17fd3923753c4e82bcd636151",
      "blockNumber": "0x118945",
      "gasUsed": "0x16a17",
      "effectiveGasPrice": "0x8",
      "from": "0xc1612c97537c2cc62a11fc4516367ab6f62d4b23",
      "to": "0x0e26ade1f5a99bd6b5d40f870a87bfe143db68b6",
      "contractAddress": null
    },
    {
      "status": "0x1",
      "cumulativeGasUsed": "0x43e45",
      "logs": [
        {
          "address": "0x0e26ade1f5a99bd6b5d40f870a87bfe143db68b6",
          "topics": [
            "0xc039c75cef0904723584eecbad08281b7298a16c9fadc7dbbb576359df79c1de"
          ],
          "data": "0x0000000000000000000000003a60acd97fea737ddd3e8fb2070601c19ac22699",
          "blockHash": "0xe6aed61a8eef57e457775c7c0b64bc1b45a0f2e17fd3923753c4e82bcd636151",
          "blockNumber": "0x118945",
          "blockTimestamp": "0x67ad2c65",
          "transactionHash": "0x0980d9c3c386bcb1afb13fd331d3d4aa754971b4d43d4531d9d4a23b946956f4",
          "transactionIndex": "0x2",
          "logIndex": "0x4",
          "removed": false
        },
        {
          "address": "0x0e26ade1f5a99bd6b5d40f870a87bfe143db68b6",
          "topics": [
            "0x84f12763861d318f97fe38a0e6f70b46f0566462d67561978f0f4dff814031df"
          ],
          "data": "0x0000000000000000000000003a60acd97fea737ddd3e8fb2070601c19ac226990000000000000000000000000000000000000000000000000000000000000001ffffffffffffffffffffffffffffffffffffffffffffffffffffffffffffffff00000000000000000000000000000000000000000000000000000000000003e8",
          "blockHash": "0xe6aed61a8eef57e457775c7c0b64bc1b45a0f2e17fd3923753c4e82bcd636151",
          "blockNumber": "0x118945",
          "blockTimestamp": "0x67ad2c65",
          "transactionHash": "0x0980d9c3c386bcb1afb13fd331d3d4aa754971b4d43d4531d9d4a23b946956f4",
          "transactionIndex": "0x2",
          "logIndex": "0x5",
          "removed": false
        }
      ],
      "logsBloom": "0x00000000000000000000000000000000000000000010000000000000000000000000000000000000000000000000000000000000000000000000000028000000000000000000000000000000000000000000000000000000000000000000000000000000000000000000000000000000000000000000000000000000000000000000000000000000000000000000000010000000000000000000000000000000080100000000000000000000000000000000000000000000000000000000000000000000000000000000080000000000000000000000000000000000000000000000000000000000000400000000000010000000000000000000000000000000",
      "type": "0x2",
      "transactionHash": "0x0980d9c3c386bcb1afb13fd331d3d4aa754971b4d43d4531d9d4a23b946956f4",
      "transactionIndex": "0x2",
      "blockHash": "0xe6aed61a8eef57e457775c7c0b64bc1b45a0f2e17fd3923753c4e82bcd636151",
      "blockNumber": "0x118945",
      "gasUsed": "0x1732f",
      "effectiveGasPrice": "0x8",
      "from": "0xc1612c97537c2cc62a11fc4516367ab6f62d4b23",
      "to": "0x0e26ade1f5a99bd6b5d40f870a87bfe143db68b6",
      "contractAddress": null
    },
    {
      "status": "0x1",
      "cumulativeGasUsed": "0x65604",
      "logs": [
        {
          "address": "0x0e26ade1f5a99bd6b5d40f870a87bfe143db68b6",
          "topics": [
            "0xc039c75cef0904723584eecbad08281b7298a16c9fadc7dbbb576359df79c1de"
          ],
          "data": "0x0000000000000000000000007c76c4f1f0ae16fb6648c8a0abf9f19ad6c059d9",
          "blockHash": "0xe6aed61a8eef57e457775c7c0b64bc1b45a0f2e17fd3923753c4e82bcd636151",
          "blockNumber": "0x118945",
          "blockTimestamp": "0x67ad2c65",
          "transactionHash": "0xffc3de41cbed7469d8354770ec8dbfebdc8645d1d0cc2ca318416ee7ba4bcf73",
          "transactionIndex": "0x3",
          "logIndex": "0x6",
          "removed": false
        },
        {
          "address": "0x0e26ade1f5a99bd6b5d40f870a87bfe143db68b6",
          "topics": [
            "0x84f12763861d318f97fe38a0e6f70b46f0566462d67561978f0f4dff814031df"
          ],
          "data": "0x0000000000000000000000007c76c4f1f0ae16fb6648c8a0abf9f19ad6c059d90000000000000000000000000000000000000000000000000000000000000001ffffffffffffffffffffffffffffffffffffffffffffffffffffffffffffffff00000000000000000000000000000000000000000000000000000000000003e8",
          "blockHash": "0xe6aed61a8eef57e457775c7c0b64bc1b45a0f2e17fd3923753c4e82bcd636151",
          "blockNumber": "0x118945",
          "blockTimestamp": "0x67ad2c65",
          "transactionHash": "0xffc3de41cbed7469d8354770ec8dbfebdc8645d1d0cc2ca318416ee7ba4bcf73",
          "transactionIndex": "0x3",
          "logIndex": "0x7",
          "removed": false
        }
      ],
      "logsBloom": "0x00000000000000000000000000000000000000000010000000000000000000000000000000000000000000000000000000000000000000000000000028000000000000000000000000000000000000000000000000000000000000000000000000000000000000000000000000000000000000000000000000000000000000000000000000000000000000000000000010000000000000000000000000000000080100000000000000000000000000000000000000000000000000000000000000000000000000000000080000000000000000000000000000000000000000000000000000000000000400000000000010000000000000000000000000000000",
      "type": "0x2",
      "transactionHash": "0xffc3de41cbed7469d8354770ec8dbfebdc8645d1d0cc2ca318416ee7ba4bcf73",
      "transactionIndex": "0x3",
      "blockHash": "0xe6aed61a8eef57e457775c7c0b64bc1b45a0f2e17fd3923753c4e82bcd636151",
      "blockNumber": "0x118945",
      "gasUsed": "0x217bf",
      "effectiveGasPrice": "0x8",
      "from": "0xc1612c97537c2cc62a11fc4516367ab6f62d4b23",
      "to": "0x0e26ade1f5a99bd6b5d40f870a87bfe143db68b6",
      "contractAddress": null
    },
    {
      "status": "0x1",
      "cumulativeGasUsed": "0x7db63",
      "logs": [
        {
          "address": "0x0e26ade1f5a99bd6b5d40f870a87bfe143db68b6",
          "topics": [
            "0xc039c75cef0904723584eecbad08281b7298a16c9fadc7dbbb576359df79c1de"
          ],
          "data": "0x000000000000000000000000f84548d35a90d8b107019478188a3791f3b8f6c1",
          "blockHash": "0xe6aed61a8eef57e457775c7c0b64bc1b45a0f2e17fd3923753c4e82bcd636151",
          "blockNumber": "0x118945",
          "blockTimestamp": "0x67ad2c65",
          "transactionHash": "0x00f2ae347fcf91ec58da629ad469db9d94f6dcdc3737324e36b0bb37fda56eef",
          "transactionIndex": "0x4",
          "logIndex": "0x8",
          "removed": false
        },
        {
          "address": "0x0e26ade1f5a99bd6b5d40f870a87bfe143db68b6",
          "topics": [
            "0x84f12763861d318f97fe38a0e6f70b46f0566462d67561978f0f4dff814031df"
          ],
          "data": "0x000000000000000000000000f84548d35a90d8b107019478188a3791f3b8f6c10000000000000000000000000000000000000000000000000000000000000001ffffffffffffffffffffffffffffffffffffffffffffffffffffffffffffffff00000000000000000000000000000000000000000000000000000000000003e8",
          "blockHash": "0xe6aed61a8eef57e457775c7c0b64bc1b45a0f2e17fd3923753c4e82bcd636151",
          "blockNumber": "0x118945",
          "blockTimestamp": "0x67ad2c65",
          "transactionHash": "0x00f2ae347fcf91ec58da629ad469db9d94f6dcdc3737324e36b0bb37fda56eef",
          "transactionIndex": "0x4",
          "logIndex": "0x9",
          "removed": false
        }
      ],
      "logsBloom": "0x00000000000000000000000000000000000000000010000000000000000000000000000000000000000000000000000000000000000000000000000028000000000000000000000000000000000000000000000000000000000000000000000000000000000000000000000000000000000000000000000000000000000000000000000000000000000000000000000010000000000000000000000000000000080100000000000000000000000000000000000000000000000000000000000000000000000000000000080000000000000000000000000000000000000000000000000000000000000400000000000010000000000000000000000000000000",
      "type": "0x2",
      "transactionHash": "0x00f2ae347fcf91ec58da629ad469db9d94f6dcdc3737324e36b0bb37fda56eef",
      "transactionIndex": "0x4",
      "blockHash": "0xe6aed61a8eef57e457775c7c0b64bc1b45a0f2e17fd3923753c4e82bcd636151",
      "blockNumber": "0x118945",
      "gasUsed": "0x1855f",
      "effectiveGasPrice": "0x8",
      "from": "0xc1612c97537c2cc62a11fc4516367ab6f62d4b23",
      "to": "0x0e26ade1f5a99bd6b5d40f870a87bfe143db68b6",
      "contractAddress": null
    },
    {
      "status": "0x1",
      "cumulativeGasUsed": "0x969da",
      "logs": [
        {
          "address": "0x0e26ade1f5a99bd6b5d40f870a87bfe143db68b6",
          "topics": [
            "0xc039c75cef0904723584eecbad08281b7298a16c9fadc7dbbb576359df79c1de"
          ],
          "data": "0x0000000000000000000000005cc307482eaba4c03526c00b6d6f5e05949550d9",
          "blockHash": "0xe6aed61a8eef57e457775c7c0b64bc1b45a0f2e17fd3923753c4e82bcd636151",
          "blockNumber": "0x118945",
          "blockTimestamp": "0x67ad2c65",
          "transactionHash": "0x2a5f639459459c70fb65d2f3db52ab17a4031b3665547c236ffdcebd415ae2bd",
          "transactionIndex": "0x5",
          "logIndex": "0xa",
          "removed": false
        },
        {
          "address": "0x0e26ade1f5a99bd6b5d40f870a87bfe143db68b6",
          "topics": [
            "0x84f12763861d318f97fe38a0e6f70b46f0566462d67561978f0f4dff814031df"
          ],
          "data": "0x0000000000000000000000005cc307482eaba4c03526c00b6d6f5e05949550d90000000000000000000000000000000000000000000000000000000000000001ffffffffffffffffffffffffffffffffffffffffffffffffffffffffffffffff00000000000000000000000000000000000000000000000000000000000003e8",
          "blockHash": "0xe6aed61a8eef57e457775c7c0b64bc1b45a0f2e17fd3923753c4e82bcd636151",
          "blockNumber": "0x118945",
          "blockTimestamp": "0x67ad2c65",
          "transactionHash": "0x2a5f639459459c70fb65d2f3db52ab17a4031b3665547c236ffdcebd415ae2bd",
          "transactionIndex": "0x5",
          "logIndex": "0xb",
          "removed": false
        }
      ],
      "logsBloom": "0x00000000000000000000000000000000000000000010000000000000000000000000000000000000000000000000000000000000000000000000000028000000000000000000000000000000000000000000000000000000000000000000000000000000000000000000000000000000000000000000000000000000000000000000000000000000000000000000000010000000000000000000000000000000080100000000000000000000000000000000000000000000000000000000000000000000000000000000080000000000000000000000000000000000000000000000000000000000000400000000000010000000000000000000000000000000",
      "type": "0x2",
      "transactionHash": "0x2a5f639459459c70fb65d2f3db52ab17a4031b3665547c236ffdcebd415ae2bd",
      "transactionIndex": "0x5",
      "blockHash": "0xe6aed61a8eef57e457775c7c0b64bc1b45a0f2e17fd3923753c4e82bcd636151",
      "blockNumber": "0x118945",
      "gasUsed": "0x18e77",
      "effectiveGasPrice": "0x8",
      "from": "0xc1612c97537c2cc62a11fc4516367ab6f62d4b23",
      "to": "0x0e26ade1f5a99bd6b5d40f870a87bfe143db68b6",
      "contractAddress": null
    },
    {
      "status": "0x1",
      "cumulativeGasUsed": "0x1978f",
      "logs": [
        {
          "address": "0x0e26ade1f5a99bd6b5d40f870a87bfe143db68b6",
          "topics": [
            "0xc039c75cef0904723584eecbad08281b7298a16c9fadc7dbbb576359df79c1de"
          ],
          "data": "0x000000000000000000000000989251ff79b744736a91c617dde3d3b5da2c09ef",
          "blockHash": "0xecfc128572e1d381b74763cf9a47c735e0418c6d57ca12c9deaaebde6a066a05",
          "blockNumber": "0x118947",
          "blockTimestamp": "0x67ad2c88",
          "transactionHash": "0xd9361c881ba211ef7e6677f3845db11b37911d50e011c528f5098274ff26b95f",
          "transactionIndex": "0x0",
          "logIndex": "0x0",
          "removed": false
        },
        {
          "address": "0x0e26ade1f5a99bd6b5d40f870a87bfe143db68b6",
          "topics": [
            "0x84f12763861d318f97fe38a0e6f70b46f0566462d67561978f0f4dff814031df"
          ],
          "data": "0x000000000000000000000000989251ff79b744736a91c617dde3d3b5da2c09ef0000000000000000000000000000000000000000000000000000000000000001ffffffffffffffffffffffffffffffffffffffffffffffffffffffffffffffff00000000000000000000000000000000000000000000000000000000000003e8",
          "blockHash": "0xecfc128572e1d381b74763cf9a47c735e0418c6d57ca12c9deaaebde6a066a05",
          "blockNumber": "0x118947",
          "blockTimestamp": "0x67ad2c88",
          "transactionHash": "0xd9361c881ba211ef7e6677f3845db11b37911d50e011c528f5098274ff26b95f",
          "transactionIndex": "0x0",
          "logIndex": "0x1",
          "removed": false
        }
      ],
      "logsBloom": "0x00000000000000000000000000000000000000000010000000000000000000000000000000000000000000000000000000000000000000000000000028000000000000000000000000000000000000000000000000000000000000000000000000000000000000000000000000000000000000000000000000000000000000000000000000000000000000000000000010000000000000000000000000000000080100000000000000000000000000000000000000000000000000000000000000000000000000000000080000000000000000000000000000000000000000000000000000000000000400000000000010000000000000000000000000000000",
      "type": "0x2",
      "transactionHash": "0xd9361c881ba211ef7e6677f3845db11b37911d50e011c528f5098274ff26b95f",
      "transactionIndex": "0x0",
      "blockHash": "0xecfc128572e1d381b74763cf9a47c735e0418c6d57ca12c9deaaebde6a066a05",
      "blockNumber": "0x118947",
      "gasUsed": "0x1978f",
      "effectiveGasPrice": "0x8",
      "from": "0xc1612c97537c2cc62a11fc4516367ab6f62d4b23",
      "to": "0x0e26ade1f5a99bd6b5d40f870a87bfe143db68b6",
      "contractAddress": null
    },
    {
      "status": "0x1",
      "cumulativeGasUsed": "0x33836",
      "logs": [
        {
          "address": "0x0e26ade1f5a99bd6b5d40f870a87bfe143db68b6",
          "topics": [
            "0xc039c75cef0904723584eecbad08281b7298a16c9fadc7dbbb576359df79c1de"
          ],
          "data": "0x0000000000000000000000007e27fc84da5e35097982fda7b2c93e8ce4fb5817",
          "blockHash": "0xecfc128572e1d381b74763cf9a47c735e0418c6d57ca12c9deaaebde6a066a05",
          "blockNumber": "0x118947",
          "blockTimestamp": "0x67ad2c88",
          "transactionHash": "0x8a966db9ab48cdea857c6dc0ecc39de9916adb4a21df062194e763a748fb51be",
          "transactionIndex": "0x1",
          "logIndex": "0x2",
          "removed": false
        },
        {
          "address": "0x0e26ade1f5a99bd6b5d40f870a87bfe143db68b6",
          "topics": [
            "0x84f12763861d318f97fe38a0e6f70b46f0566462d67561978f0f4dff814031df"
          ],
          "data": "0x0000000000000000000000007e27fc84da5e35097982fda7b2c93e8ce4fb58170000000000000000000000000000000000000000000000000000000000000001ffffffffffffffffffffffffffffffffffffffffffffffffffffffffffffffff00000000000000000000000000000000000000000000000000000000000003e8",
          "blockHash": "0xecfc128572e1d381b74763cf9a47c735e0418c6d57ca12c9deaaebde6a066a05",
          "blockNumber": "0x118947",
          "blockTimestamp": "0x67ad2c88",
          "transactionHash": "0x8a966db9ab48cdea857c6dc0ecc39de9916adb4a21df062194e763a748fb51be",
          "transactionIndex": "0x1",
          "logIndex": "0x3",
          "removed": false
        }
      ],
      "logsBloom": "0x00000000000000000000000000000000000000000010000000000000000000000000000000000000000000000000000000000000000000000000000028000000000000000000000000000000000000000000000000000000000000000000000000000000000000000000000000000000000000000000000000000000000000000000000000000000000000000000000010000000000000000000000000000000080100000000000000000000000000000000000000000000000000000000000000000000000000000000080000000000000000000000000000000000000000000000000000000000000400000000000010000000000000000000000000000000",
      "type": "0x2",
      "transactionHash": "0x8a966db9ab48cdea857c6dc0ecc39de9916adb4a21df062194e763a748fb51be",
      "transactionIndex": "0x1",
      "blockHash": "0xecfc128572e1d381b74763cf9a47c735e0418c6d57ca12c9deaaebde6a066a05",
      "blockNumber": "0x118947",
      "gasUsed": "0x1a0a7",
      "effectiveGasPrice": "0x8",
      "from": "0xc1612c97537c2cc62a11fc4516367ab6f62d4b23",
      "to": "0x0e26ade1f5a99bd6b5d40f870a87bfe143db68b6",
      "contractAddress": null
    },
    {
      "status": "0x1",
      "cumulativeGasUsed": "0x1a9bf",
      "logs": [
        {
          "address": "0x0e26ade1f5a99bd6b5d40f870a87bfe143db68b6",
          "topics": [
            "0xc039c75cef0904723584eecbad08281b7298a16c9fadc7dbbb576359df79c1de"
          ],
          "data": "0x000000000000000000000000c8156af812714b8cedb540adec69fc104d99930b",
          "blockHash": "0x98e48cb03771f88b649640db982e26ba3ec2d60795ab69710e7fd33b95b65357",
          "blockNumber": "0x118948",
          "blockTimestamp": "0x67ad2ca1",
          "transactionHash": "0x92923b1dbc6e300880ed9d87cebcb228799261231062c802de303b3a9e0d4e4c",
          "transactionIndex": "0x0",
          "logIndex": "0x0",
          "removed": false
        },
        {
          "address": "0x0e26ade1f5a99bd6b5d40f870a87bfe143db68b6",
          "topics": [
            "0x84f12763861d318f97fe38a0e6f70b46f0566462d67561978f0f4dff814031df"
          ],
          "data": "0x000000000000000000000000c8156af812714b8cedb540adec69fc104d99930b0000000000000000000000000000000000000000000000000000000000000001ffffffffffffffffffffffffffffffffffffffffffffffffffffffffffffffff00000000000000000000000000000000000000000000000000000000000003e8",
          "blockHash": "0x98e48cb03771f88b649640db982e26ba3ec2d60795ab69710e7fd33b95b65357",
          "blockNumber": "0x118948",
          "blockTimestamp": "0x67ad2ca1",
          "transactionHash": "0x92923b1dbc6e300880ed9d87cebcb228799261231062c802de303b3a9e0d4e4c",
          "transactionIndex": "0x0",
          "logIndex": "0x1",
          "removed": false
        }
      ],
      "logsBloom": "0x00000000000000000000000000000000000000000010000000000000000000000000000000000000000000000000000000000000000000000000000028000000000000000000000000000000000000000000000000000000000000000000000000000000000000000000000000000000000000000000000000000000000000000000000000000000000000000000000010000000000000000000000000000000080100000000000000000000000000000000000000000000000000000000000000000000000000000000080000000000000000000000000000000000000000000000000000000000000400000000000010000000000000000000000000000000",
      "type": "0x2",
      "transactionHash": "0x92923b1dbc6e300880ed9d87cebcb228799261231062c802de303b3a9e0d4e4c",
      "transactionIndex": "0x0",
      "blockHash": "0x98e48cb03771f88b649640db982e26ba3ec2d60795ab69710e7fd33b95b65357",
      "blockNumber": "0x118948",
      "gasUsed": "0x1a9bf",
      "effectiveGasPrice": "0x8",
      "from": "0xc1612c97537c2cc62a11fc4516367ab6f62d4b23",
      "to": "0x0e26ade1f5a99bd6b5d40f870a87bfe143db68b6",
      "contractAddress": null
    },
    {
      "status": "0x1",
      "cumulativeGasUsed": "0x1b2d7",
      "logs": [
        {
          "address": "0x0e26ade1f5a99bd6b5d40f870a87bfe143db68b6",
          "topics": [
            "0xc039c75cef0904723584eecbad08281b7298a16c9fadc7dbbb576359df79c1de"
          ],
          "data": "0x000000000000000000000000356ccc8a7cbe1eadf0282e6c23278b0e67fb3f91",
          "blockHash": "0xb16a4b43bff0df69508ac71e722b78ac28df9ce5aad52561b3cb36c1eb871f59",
          "blockNumber": "0x118949",
          "blockTimestamp": "0x67ad2cba",
          "transactionHash": "0xce3258b214c8b479442dd377d08c74e6e28c1cc6cb8df3fc45357b51b94be8eb",
          "transactionIndex": "0x0",
          "logIndex": "0x0",
          "removed": false
        },
        {
          "address": "0x0e26ade1f5a99bd6b5d40f870a87bfe143db68b6",
          "topics": [
            "0x84f12763861d318f97fe38a0e6f70b46f0566462d67561978f0f4dff814031df"
          ],
          "data": "0x000000000000000000000000356ccc8a7cbe1eadf0282e6c23278b0e67fb3f910000000000000000000000000000000000000000000000000000000000000001ffffffffffffffffffffffffffffffffffffffffffffffffffffffffffffffff00000000000000000000000000000000000000000000000000000000000003e8",
          "blockHash": "0xb16a4b43bff0df69508ac71e722b78ac28df9ce5aad52561b3cb36c1eb871f59",
          "blockNumber": "0x118949",
          "blockTimestamp": "0x67ad2cba",
          "transactionHash": "0xce3258b214c8b479442dd377d08c74e6e28c1cc6cb8df3fc45357b51b94be8eb",
          "transactionIndex": "0x0",
          "logIndex": "0x1",
          "removed": false
        }
      ],
      "logsBloom": "0x00000000000000000000000000000000000000000010000000000000000000000000000000000000000000000000000000000000000000000000000028000000000000000000000000000000000000000000000000000000000000000000000000000000000000000000000000000000000000000000000000000000000000000000000000000000000000000000000010000000000000000000000000000000080100000000000000000000000000000000000000000000000000000000000000000000000000000000080000000000000000000000000000000000000000000000000000000000000400000000000010000000000000000000000000000000",
      "type": "0x2",
      "transactionHash": "0xce3258b214c8b479442dd377d08c74e6e28c1cc6cb8df3fc45357b51b94be8eb",
      "transactionIndex": "0x0",
      "blockHash": "0xb16a4b43bff0df69508ac71e722b78ac28df9ce5aad52561b3cb36c1eb871f59",
      "blockNumber": "0x118949",
      "gasUsed": "0x1b2d7",
      "effectiveGasPrice": "0x8",
      "from": "0xc1612c97537c2cc62a11fc4516367ab6f62d4b23",
      "to": "0x0e26ade1f5a99bd6b5d40f870a87bfe143db68b6",
      "contractAddress": null
    },
    {
      "status": "0x1",
      "cumulativeGasUsed": "0x1bbef",
      "logs": [
        {
          "address": "0x0e26ade1f5a99bd6b5d40f870a87bfe143db68b6",
          "topics": [
            "0xc039c75cef0904723584eecbad08281b7298a16c9fadc7dbbb576359df79c1de"
          ],
          "data": "0x0000000000000000000000005404f8b4f4625cff045a3076bc28c250a71e4507",
          "blockHash": "0xeb9c302a790ab29a0d6c659cb4f9f43ad5087292152171d3d480ae9761fd8801",
          "blockNumber": "0x11894a",
          "blockTimestamp": "0x67ad2cce",
          "transactionHash": "0xb9edba3cdd39c1168352cfb82d74d4812a7ca95b94c9ddaf91389b0a13ee59f4",
          "transactionIndex": "0x0",
          "logIndex": "0x0",
          "removed": false
        },
        {
          "address": "0x0e26ade1f5a99bd6b5d40f870a87bfe143db68b6",
          "topics": [
            "0x84f12763861d318f97fe38a0e6f70b46f0566462d67561978f0f4dff814031df"
          ],
          "data": "0x0000000000000000000000005404f8b4f4625cff045a3076bc28c250a71e45070000000000000000000000000000000000000000000000000000000000000001ffffffffffffffffffffffffffffffffffffffffffffffffffffffffffffffff00000000000000000000000000000000000000000000000000000000000003e8",
          "blockHash": "0xeb9c302a790ab29a0d6c659cb4f9f43ad5087292152171d3d480ae9761fd8801",
          "blockNumber": "0x11894a",
          "blockTimestamp": "0x67ad2cce",
          "transactionHash": "0xb9edba3cdd39c1168352cfb82d74d4812a7ca95b94c9ddaf91389b0a13ee59f4",
          "transactionIndex": "0x0",
          "logIndex": "0x1",
          "removed": false
        }
      ],
      "logsBloom": "0x00000000000000000000000000000000000000000010000000000000000000000000000000000000000000000000000000000000000000000000000028000000000000000000000000000000000000000000000000000000000000000000000000000000000000000000000000000000000000000000000000000000000000000000000000000000000000000000000010000000000000000000000000000000080100000000000000000000000000000000000000000000000000000000000000000000000000000000080000000000000000000000000000000000000000000000000000000000000400000000000010000000000000000000000000000000",
      "type": "0x2",
      "transactionHash": "0xb9edba3cdd39c1168352cfb82d74d4812a7ca95b94c9ddaf91389b0a13ee59f4",
      "transactionIndex": "0x0",
      "blockHash": "0xeb9c302a790ab29a0d6c659cb4f9f43ad5087292152171d3d480ae9761fd8801",
      "blockNumber": "0x11894a",
      "gasUsed": "0x1bbef",
      "effectiveGasPrice": "0x8",
      "from": "0xc1612c97537c2cc62a11fc4516367ab6f62d4b23",
      "to": "0x0e26ade1f5a99bd6b5d40f870a87bfe143db68b6",
      "contractAddress": null
    }
  ],
  "libraries": [],
  "pending": [],
  "returns": {},
  "timestamp": 1739402430,
  "chain": 2017,
  "commit": "21a0944"
}