{
  "transactions": [
    {
      "hash": "0x172a08372421f28ebc421edd78397a473cd5013c739cd7651ca8bc015011c851",
      "transactionType": "CALL",
      "contractName": null,
      "contractAddress": "0x0e26ade1f5a99bd6b5d40f870a87bfe143db68b6",
      "function": "UpdateXYZ(address,bool,uint256,uint256)",
      "arguments": [
        "0x838130A2020f602dd9E08e370c3494777104B2c0",
        "true",
        "115792089237316195423570985008687907853269984665640564039457584007913129639935",
        "1000"
      ],
      "transaction": {
        "from": "0xc1612c97537c2cc62a11fc4516367ab6f62d4b23",
        "to": "0x0e26ade1f5a99bd6b5d40f870a87bfe143db68b6",
        "gas": "0x3487b",
        "value": "0x0",
        "input": "0xe9aea396000000000000000000000000838130a2020f602dd9e08e370c3494777104b2c00000000000000000000000000000000000000000000000000000000000000001ffffffffffffffffffffffffffffffffffffffffffffffffffffffffffffffff00000000000000000000000000000000000000000000000000000000000003e8",
        "nonce": "0xaa",
        "chainId": "0x7e1"
      },
      "additionalContracts": [],
      "isFixedGasLimit": false
    },
    {
      "hash": "0xc50dc5f45e81e612516a8424f3f46f0484933cbb5f0deaa18d98f9ab0d076a45",
      "transactionType": "CALL",
      "contractName": null,
      "contractAddress": "0x0e26ade1f5a99bd6b5d40f870a87bfe143db68b6",
      "function": "UpdateXYZ(address,bool,uint256,uint256)",
      "arguments": [
        "0x6D780B5e1104f3F30F5976D3D3DB16431e761148",
        "true",
        "115792089237316195423570985008687907853269984665640564039457584007913129639935",
        "1000"
      ],
      "transaction": {
        "from": "0xc1612c97537c2cc62a11fc4516367ab6f62d4b23",
        "to": "0x0e26ade1f5a99bd6b5d40f870a87bfe143db68b6",
        "gas": "0x3550b",
        "value": "0x0",
        "input": "0xe9aea3960000000000000000000000006d780b5e1104f3f30f5976d3d3db16431e7611480000000000000000000000000000000000000000000000000000000000000001ffffffffffffffffffffffffffffffffffffffffffffffffffffffffffffffff00000000000000000000000000000000000000000000000000000000000003e8",
        "nonce": "0xab",
        "chainId": "0x7e1"
      },
      "additionalContracts": [],
      "isFixedGasLimit": false
    },
    {
      "hash": "0x4f40b6922a3853c4c8e5c78b871320341d286a89ecbd7bfc28e7b5be0550ee78",
      "transactionType": "CALL",
      "contractName": null,
      "contractAddress": "0x0e26ade1f5a99bd6b5d40f870a87bfe143db68b6",
      "function": "UpdateXYZ(address,bool,uint256,uint256)",
      "arguments": [
        "0x1C74574848D67AB4fbc8C24F21a0f44a10370fDa",
        "true",
        "115792089237316195423570985008687907853269984665640564039457584007913129639935",
        "1000"
      ],
      "transaction": {
        "from": "0xc1612c97537c2cc62a11fc4516367ab6f62d4b23",
        "to": "0x0e26ade1f5a99bd6b5d40f870a87bfe143db68b6",
        "gas": "0x3619c",
        "value": "0x0",
        "input": "0xe9aea3960000000000000000000000001c74574848d67ab4fbc8c24f21a0f44a10370fda0000000000000000000000000000000000000000000000000000000000000001ffffffffffffffffffffffffffffffffffffffffffffffffffffffffffffffff00000000000000000000000000000000000000000000000000000000000003e8",
        "nonce": "0xac",
        "chainId": "0x7e1"
      },
      "additionalContracts": [],
      "isFixedGasLimit": false
    }
  ],
  "receipts": [
    {
      "status": "0x1",
      "cumulativeGasUsed": "0x2607f",
      "logs": [
        {
          "address": "0x0e26ade1f5a99bd6b5d40f870a87bfe143db68b6",
          "topics": [
            "0xc039c75cef0904723584eecbad08281b7298a16c9fadc7dbbb576359df79c1de"
          ],
          "data": "0x000000000000000000000000838130a2020f602dd9e08e370c3494777104b2c0",
          "blockHash": "0x7ebe7ae7c4da75788d606ddba18b0692ed752d4b5e57154d429f37445b0e23b3",
          "blockNumber": "0x11b642",
          "blockTimestamp": "0x67afb6ca",
          "transactionHash": "0x172a08372421f28ebc421edd78397a473cd5013c739cd7651ca8bc015011c851",
          "transactionIndex": "0x0",
          "logIndex": "0x0",
          "removed": false
        },
        {
          "address": "0x0e26ade1f5a99bd6b5d40f870a87bfe143db68b6",
          "topics": [
            "0x84f12763861d318f97fe38a0e6f70b46f0566462d67561978f0f4dff814031df"
          ],
          "data": "0x000000000000000000000000838130a2020f602dd9e08e370c3494777104b2c00000000000000000000000000000000000000000000000000000000000000001ffffffffffffffffffffffffffffffffffffffffffffffffffffffffffffffff00000000000000000000000000000000000000000000000000000000000003e8",
          "blockHash": "0x7ebe7ae7c4da75788d606ddba18b0692ed752d4b5e57154d429f37445b0e23b3",
          "blockNumber": "0x11b642",
          "blockTimestamp": "0x67afb6ca",
          "transactionHash": "0x172a08372421f28ebc421edd78397a473cd5013c739cd7651ca8bc015011c851",
          "transactionIndex": "0x0",
          "logIndex": "0x1",
          "removed": false
        }
      ],
      "logsBloom": "0x00000000000000000000000000000000000000000010000000000000000000000000000000000000000000000000000000000000000000000000000028000000000000000000000000000000000000000000000000000000000000000000000000000000000000000000000000000000000000000000000000000000000000000000000000000000000000000000000010000000000000000000000000000000080100000000000000000000000000000000000000000000000000000000000000000000000000000000080000000000000000000000000000000000000000000000000000000000000400000000000010000000000000000000000000000000",
      "type": "0x2",
      "transactionHash": "0x172a08372421f28ebc421edd78397a473cd5013c739cd7651ca8bc015011c851",
      "transactionIndex": "0x0",
      "blockHash": "0x7ebe7ae7c4da75788d606ddba18b0692ed752d4b5e57154d429f37445b0e23b3",
      "blockNumber": "0x11b642",
      "gasUsed": "0x2607f",
      "effectiveGasPrice": "0x8",
      "from": "0xc1612c97537c2cc62a11fc4516367ab6f62d4b23",
      "to": "0x0e26ade1f5a99bd6b5d40f870a87bfe143db68b6",
      "contractAddress": null
    },
    {
      "status": "0x1",
      "cumulativeGasUsed": "0x4ca16",
      "logs": [
        {
          "address": "0x0e26ade1f5a99bd6b5d40f870a87bfe143db68b6",
          "topics": [
            "0xc039c75cef0904723584eecbad08281b7298a16c9fadc7dbbb576359df79c1de"
          ],
          "data": "0x0000000000000000000000006d780b5e1104f3f30f5976d3d3db16431e761148",
          "blockHash": "0x7ebe7ae7c4da75788d606ddba18b0692ed752d4b5e57154d429f37445b0e23b3",
          "blockNumber": "0x11b642",
          "blockTimestamp": "0x67afb6ca",
          "transactionHash": "0xc50dc5f45e81e612516a8424f3f46f0484933cbb5f0deaa18d98f9ab0d076a45",
          "transactionIndex": "0x1",
          "logIndex": "0x2",
          "removed": false
        },
        {
          "address": "0x0e26ade1f5a99bd6b5d40f870a87bfe143db68b6",
          "topics": [
            "0x84f12763861d318f97fe38a0e6f70b46f0566462d67561978f0f4dff814031df"
          ],
          "data": "0x0000000000000000000000006d780b5e1104f3f30f5976d3d3db16431e7611480000000000000000000000000000000000000000000000000000000000000001ffffffffffffffffffffffffffffffffffffffffffffffffffffffffffffffff00000000000000000000000000000000000000000000000000000000000003e8",
          "blockHash": "0x7ebe7ae7c4da75788d606ddba18b0692ed752d4b5e57154d429f37445b0e23b3",
          "blockNumber": "0x11b642",
          "blockTimestamp": "0x67afb6ca",
          "transactionHash": "0xc50dc5f45e81e612516a8424f3f46f0484933cbb5f0deaa18d98f9ab0d076a45",
          "transactionIndex": "0x1",
          "logIndex": "0x3",
          "removed": false
        }
      ],
      "logsBloom": "0x00000000000000000000000000000000000000000010000000000000000000000000000000000000000000000000000000000000000000000000000028000000000000000000000000000000000000000000000000000000000000000000000000000000000000000000000000000000000000000000000000000000000000000000000000000000000000000000000010000000000000000000000000000000080100000000000000000000000000000000000000000000000000000000000000000000000000000000080000000000000000000000000000000000000000000000000000000000000400000000000010000000000000000000000000000000",
      "type": "0x2",
      "transactionHash": "0xc50dc5f45e81e612516a8424f3f46f0484933cbb5f0deaa18d98f9ab0d076a45",
      "transactionIndex": "0x1",
      "blockHash": "0x7ebe7ae7c4da75788d606ddba18b0692ed752d4b5e57154d429f37445b0e23b3",
      "blockNumber": "0x11b642",
      "gasUsed": "0x26997",
      "effectiveGasPrice": "0x8",
      "from": "0xc1612c97537c2cc62a11fc4516367ab6f62d4b23",
      "to": "0x0e26ade1f5a99bd6b5d40f870a87bfe143db68b6",
      "contractAddress": null
    },
    {
      "status": "0x1",
      "cumulativeGasUsed": "0x73cc6",
      "logs": [
        {
          "address": "0x0e26ade1f5a99bd6b5d40f870a87bfe143db68b6",
          "topics": [
            "0xc039c75cef0904723584eecbad08281b7298a16c9fadc7dbbb576359df79c1de"
          ],
          "data": "0x0000000000000000000000001c74574848d67ab4fbc8c24f21a0f44a10370fda",
          "blockHash": "0x7ebe7ae7c4da75788d606ddba18b0692ed752d4b5e57154d429f37445b0e23b3",
          "blockNumber": "0x11b642",
          "blockTimestamp": "0x67afb6ca",
          "transactionHash": "0x4f40b6922a3853c4c8e5c78b871320341d286a89ecbd7bfc28e7b5be0550ee78",
          "transactionIndex": "0x2",
          "logIndex": "0x4",
          "removed": false
        },
        {
          "address": "0x0e26ade1f5a99bd6b5d40f870a87bfe143db68b6",
          "topics": [
            "0x84f12763861d318f97fe38a0e6f70b46f0566462d67561978f0f4dff814031df"
          ],
          "data": "0x0000000000000000000000001c74574848d67ab4fbc8c24f21a0f44a10370fda0000000000000000000000000000000000000000000000000000000000000001ffffffffffffffffffffffffffffffffffffffffffffffffffffffffffffffff00000000000000000000000000000000000000000000000000000000000003e8",
          "blockHash": "0x7ebe7ae7c4da75788d606ddba18b0692ed752d4b5e57154d429f37445b0e23b3",
          "blockNumber": "0x11b642",
          "blockTimestamp": "0x67afb6ca",
          "transactionHash": "0x4f40b6922a3853c4c8e5c78b871320341d286a89ecbd7bfc28e7b5be0550ee78",
          "transactionIndex": "0x2",
          "logIndex": "0x5",
          "removed": false
        }
      ],
      "logsBloom": "0x00000000000000000000000000000000000000000010000000000000000000000000000000000000000000000000000000000000000000000000000028000000000000000000000000000000000000000000000000000000000000000000000000000000000000000000000000000000000000000000000000000000000000000000000000000000000000000000000010000000000000000000000000000000080100000000000000000000000000000000000000000000000000000000000000000000000000000000080000000000000000000000000000000000000000000000000000000000000400000000000010000000000000000000000000000000",
      "type": "0x2",
      "transactionHash": "0x4f40b6922a3853c4c8e5c78b871320341d286a89ecbd7bfc28e7b5be0550ee78",
      "transactionIndex": "0x2",
      "blockHash": "0x7ebe7ae7c4da75788d606ddba18b0692ed752d4b5e57154d429f37445b0e23b3",
      "blockNumber": "0x11b642",
      "gasUsed": "0x272b0",
      "effectiveGasPrice": "0x8",
      "from": "0xc1612c97537c2cc62a11fc4516367ab6f62d4b23",
      "to": "0x0e26ade1f5a99bd6b5d40f870a87bfe143db68b6",
      "contractAddress": null
    }
  ],
  "libraries": [],
  "pending": [],
  "returns": {},
  "timestamp": 1739568824,
  "chain": 2017,
  "commit": "21a0944"
}